{
  "contractName": "Curve",
  "abi": [
    {
      "constant": false,
      "inputs": [],
      "name": "renounceOwnership",
      "outputs": [],
      "payable": false,
      "stateMutability": "nonpayable",
      "type": "function"
    },
    {
      "constant": true,
      "inputs": [],
      "name": "owner",
      "outputs": [
        {
          "name": "",
          "type": "address"
        }
      ],
      "payable": false,
      "stateMutability": "view",
      "type": "function"
    },
    {
      "constant": true,
      "inputs": [],
      "name": "isOwner",
      "outputs": [
        {
          "name": "",
          "type": "bool"
        }
      ],
      "payable": false,
      "stateMutability": "view",
      "type": "function"
    },
    {
      "constant": false,
      "inputs": [
        {
          "name": "newOwner",
          "type": "address"
        }
      ],
      "name": "transferOwnership",
      "outputs": [],
      "payable": false,
      "stateMutability": "nonpayable",
      "type": "function"
    },
    {
      "inputs": [
        {
          "name": "_bondedToken",
          "type": "address"
        },
        {
          "name": "_collateralToken",
          "type": "address"
        }
      ],
      "payable": false,
      "stateMutability": "nonpayable",
      "type": "constructor"
    },
    {
      "anonymous": false,
      "inputs": [
        {
          "indexed": true,
          "name": "buyer",
          "type": "address"
        },
        {
          "indexed": false,
          "name": "amount",
          "type": "uint256"
        },
        {
          "indexed": false,
          "name": "pricePaid",
          "type": "uint256"
        },
        {
          "indexed": false,
          "name": "maxSpend",
          "type": "uint256"
        }
      ],
      "name": "mintTokens",
      "type": "event"
    },
    {
      "anonymous": false,
      "inputs": [
        {
          "indexed": true,
          "name": "buyer",
          "type": "address"
        },
        {
          "indexed": true,
          "name": "receiver",
          "type": "address"
        },
        {
          "indexed": false,
          "name": "amount",
          "type": "uint256"
        },
        {
          "indexed": false,
          "name": "pricePaid",
          "type": "uint256"
        },
        {
          "indexed": false,
          "name": "maxSpend",
          "type": "uint256"
        }
      ],
      "name": "mintTokensTo",
      "type": "event"
    },
    {
      "anonymous": false,
      "inputs": [
        {
          "indexed": true,
          "name": "seller",
          "type": "address"
        },
        {
          "indexed": false,
          "name": "amount",
          "type": "uint256"
        },
        {
          "indexed": false,
          "name": "rewardReceived",
          "type": "uint256"
        },
        {
          "indexed": false,
          "name": "minReward",
          "type": "uint256"
        }
      ],
      "name": "burnTokens",
      "type": "event"
    },
    {
      "anonymous": false,
      "inputs": [
        {
          "indexed": true,
          "name": "owner",
          "type": "address"
        }
      ],
      "name": "shutDownOccurred",
      "type": "event"
    },
    {
      "anonymous": false,
      "inputs": [
        {
          "indexed": true,
          "name": "previousOwner",
          "type": "address"
        },
        {
          "indexed": true,
          "name": "newOwner",
          "type": "address"
        }
      ],
      "name": "OwnershipTransferred",
      "type": "event"
    },
    {
      "constant": true,
      "inputs": [
        {
          "name": "_amount",
          "type": "uint256"
        }
      ],
      "name": "buyPrice",
      "outputs": [
        {
          "name": "collateralRequired",
          "type": "uint256"
        }
      ],
      "payable": false,
      "stateMutability": "view",
      "type": "function"
    },
    {
      "constant": true,
      "inputs": [
        {
          "name": "_amount",
          "type": "uint256"
        }
      ],
      "name": "sellReward",
      "outputs": [
        {
          "name": "collateralReward",
          "type": "uint256"
        }
      ],
      "payable": false,
      "stateMutability": "view",
      "type": "function"
    },
    {
      "constant": true,
      "inputs": [],
      "name": "isCurveActive",
      "outputs": [
        {
          "name": "",
          "type": "bool"
        }
      ],
      "payable": false,
      "stateMutability": "view",
      "type": "function"
    },
    {
      "constant": true,
      "inputs": [
        {
          "name": "_initialSupply",
          "type": "uint256"
        }
      ],
      "name": "requiredCollateral",
      "outputs": [
        {
          "name": "",
          "type": "uint256"
        }
      ],
      "payable": false,
      "stateMutability": "view",
      "type": "function"
    },
    {
      "constant": true,
      "inputs": [],
      "name": "bondedToken",
      "outputs": [
        {
          "name": "",
          "type": "address"
        }
      ],
      "payable": false,
      "stateMutability": "view",
      "type": "function"
    },
    {
      "constant": true,
      "inputs": [],
      "name": "collateralToken",
      "outputs": [
        {
          "name": "",
          "type": "address"
        }
      ],
      "payable": false,
      "stateMutability": "view",
      "type": "function"
    },
    {
      "constant": false,
      "inputs": [],
      "name": "init",
      "outputs": [],
      "payable": false,
      "stateMutability": "nonpayable",
      "type": "function"
    },
    {
      "constant": false,
      "inputs": [
        {
          "name": "_amount",
          "type": "uint256"
        },
        {
          "name": "_maxCollateralSpend",
          "type": "uint256"
        }
      ],
      "name": "mint",
      "outputs": [
        {
          "name": "success",
          "type": "bool"
        }
      ],
      "payable": false,
      "stateMutability": "nonpayable",
      "type": "function"
    },
    {
      "constant": false,
      "inputs": [
        {
          "name": "_amount",
          "type": "uint256"
        },
        {
          "name": "_maxCollateralSpend",
          "type": "uint256"
        },
        {
          "name": "_to",
          "type": "address"
        }
      ],
      "name": "mintTo",
      "outputs": [
        {
          "name": "success",
          "type": "bool"
        }
      ],
      "payable": false,
      "stateMutability": "nonpayable",
      "type": "function"
    },
    {
      "constant": false,
      "inputs": [
        {
          "name": "_amount",
          "type": "uint256"
        },
        {
          "name": "_minCollateralReward",
          "type": "uint256"
        }
      ],
      "name": "redeem",
      "outputs": [
        {
          "name": "success",
          "type": "bool"
        }
      ],
      "payable": false,
      "stateMutability": "nonpayable",
      "type": "function"
    },
    {
      "constant": false,
      "inputs": [],
      "name": "shutDown",
      "outputs": [],
      "payable": false,
      "stateMutability": "nonpayable",
      "type": "function"
    }
  ],
  "bytecode": "0x608060405234801561001057600080fd5b50604051604080611a458339810180604052604081101561003057600080fd5b508051602090910151600061004c6401000000006100cd810204565b60008054600160a060020a031916600160a060020a0383169081178255604051929350917f8be0079c531659141344cd1fd0a4f28419497f9722a3daafe3b4186f6b6457e0908290a35060018054600160a060020a03938416600160a060020a031991821617825560028054939094169216919091179091556003556100d1565b3390565b611965806100e06000396000f3fe6080604052600436106100da5763ffffffff7c010000000000000000000000000000000000000000000000000000000060003504166305a27c9d81146100df57806310b9e583146101085780631b2ef1ca1461011f5780636190e3a81461014f578063715018a61461018e5780637cbc2373146101a35780638da5cb5b146101d35780638f32d59b14610204578063abb7bc4a14610219578063b2016bd414610255578063c4dbf6221461026a578063c9f1dba814610294578063e1c7392a146102be578063e36a4ec7146102d3578063f2fde38b146102e8575b600080fd5b3480156100eb57600080fd5b506100f461031b565b604080519115158252519081900360200190f35b34801561011457600080fd5b5061011d610377565b005b34801561012b57600080fd5b506100f46004803603604081101561014257600080fd5b50803590602001356104a5565b34801561015b57600080fd5b506100f46004803603606081101561017257600080fd5b5080359060208101359060400135600160a060020a0316610605565b34801561019a57600080fd5b5061011d610772565b3480156101af57600080fd5b506100f4600480360360408110156101c657600080fd5b5080359060200135610827565b3480156101df57600080fd5b506101e8610b50565b60408051600160a060020a039092168252519081900360200190f35b34801561021057600080fd5b506100f4610b5f565b34801561022557600080fd5b506102436004803603602081101561023c57600080fd5b5035610b83565b60408051918252519081900360200190f35b34801561026157600080fd5b506101e8610b94565b34801561027657600080fd5b506102436004803603602081101561028d57600080fd5b5035610ba3565b3480156102a057600080fd5b50610243600480360360208110156102b757600080fd5b5035610ce0565b3480156102ca57600080fd5b5061011d610e24565b3480156102df57600080fd5b506101e8611200565b3480156102f457600080fd5b5061011d6004803603602081101561030b57600080fd5b5035600160a060020a031661120f565b6002546000907501000000000000000000000000000000000000000000900460ff168015610363575060025474010000000000000000000000000000000000000000900460ff165b1561037057506001610374565b5060005b90565b61037f610b5f565b15156103d5576040805160e560020a62461bcd02815260206004820181905260248201527f4f776e61626c653a2063616c6c6572206973206e6f7420746865206f776e6572604482015290519081900360640190fd5b600160009054906101000a9004600160a060020a0316600160a060020a031663986502756040518163ffffffff167c0100000000000000000000000000000000000000000000000000000000028152600401600060405180830381600087803b15801561044157600080fd5b505af1158015610455573d6000803e3d6000fd5b50506002805475ff00000000000000000000000000000000000000000019169055505060405133907f85d30af066e5af845a9622672f06b85f9fac16623c3ae27bc82f59e9443b70dc90600090a2565b6002546000907501000000000000000000000000000000000000000000900460ff1680156104ed575060025474010000000000000000000000000000000000000000900460ff165b1515610543576040805160e560020a62461bcd02815260206004820152600e60248201527f437572766520696e616374697665000000000000000000000000000000000000604482015290519081900360640190fd5b6003546002141561059e576040805160e560020a62461bcd02815260206004820152601f60248201527f5265656e7472616e637947756172643a207265656e7472616e742063616c6c00604482015290519081900360640190fd5b600260035560006105b0848433611279565b6040805186815260208101839052808201869052905191925033917f8bb50bbad61a171c6fa349b88297f9622b09984d0cb849541900b414bb74a3849181900360600190a26001915050600160035592915050565b6002546000907501000000000000000000000000000000000000000000900460ff16801561064d575060025474010000000000000000000000000000000000000000900460ff165b15156106a3576040805160e560020a62461bcd02815260206004820152600e60248201527f437572766520696e616374697665000000000000000000000000000000000000604482015290519081900360640190fd5b600354600214156106fe576040805160e560020a62461bcd02815260206004820152601f60248201527f5265656e7472616e637947756172643a207265656e7472616e742063616c6c00604482015290519081900360640190fd5b60026003556000610710858585611279565b60408051878152602081018390528082018790529051919250600160a060020a0385169133917f61e2242687b56628bc0e14d72fc3cb62ddc508c2096a2b86e36ca745e1164af7919081900360600190a3600191505060016003559392505050565b61077a610b5f565b15156107d0576040805160e560020a62461bcd02815260206004820181905260248201527f4f776e61626c653a2063616c6c6572206973206e6f7420746865206f776e6572604482015290519081900360640190fd5b60008054604051600160a060020a03909116907f8be0079c531659141344cd1fd0a4f28419497f9722a3daafe3b4186f6b6457e0908390a36000805473ffffffffffffffffffffffffffffffffffffffff19169055565b6002546000907501000000000000000000000000000000000000000000900460ff16801561086f575060025474010000000000000000000000000000000000000000900460ff165b15156108c5576040805160e560020a62461bcd02815260206004820152600e60248201527f437572766520696e616374697665000000000000000000000000000000000000604482015290519081900360640190fd5b60035460021415610920576040805160e560020a62461bcd02815260206004820152601f60248201527f5265656e7472616e637947756172643a207265656e7472616e742063616c6c00604482015290519081900360640190fd5b6002600355600061093084610ce0565b90508281101561098a576040805160e560020a62461bcd02815260206004820152601560248201527f52657761726420756e646572206d696e2073656c6c0000000000000000000000604482015290519081900360640190fd5b600154604080517f79cc6790000000000000000000000000000000000000000000000000000000008152336004820152602481018790529051600160a060020a03909216916379cc67909160448082019260009290919082900301818387803b1580156109f657600080fd5b505af1158015610a0a573d6000803e3d6000fd5b5050600254604080517fa9059cbb000000000000000000000000000000000000000000000000000000008152336004820152602481018690529051600160a060020a03909216935063a9059cbb92506044808201926020929091908290030181600087803b158015610a7b57600080fd5b505af1158015610a8f573d6000803e3d6000fd5b505050506040513d6020811015610aa557600080fd5b50511515610afd576040805160e560020a62461bcd02815260206004820152601e60248201527f5472616e7366657272696e6720636f6c6c61746572616c206661696c65640000604482015290519081900360640190fd5b6040805185815260208101839052808201859052905133917f9ed992203b5a631f0a9d0b8341fde3c68a998a2ac413d72a34213bd77d4b1814919081900360600190a26001915050600160035592915050565b600054600160a060020a031690565b60008054600160a060020a0316610b746114cd565b600160a060020a031614905090565b6000610b8e826114d1565b92915050565b600254600160a060020a031690565b6002546000907501000000000000000000000000000000000000000000900460ff168015610beb575060025474010000000000000000000000000000000000000000900460ff165b1515610c41576040805160e560020a62461bcd02815260206004820152600e60248201527f437572766520696e616374697665000000000000000000000000000000000000604482015290519081900360640190fd5b610b8e82600160009054906101000a9004600160a060020a0316600160a060020a03166318160ddd6040518163ffffffff167c010000000000000000000000000000000000000000000000000000000002815260040160206040518083038186803b158015610caf57600080fd5b505afa158015610cc3573d6000803e3d6000fd5b505050506040513d6020811015610cd957600080fd5b50516114da565b6002546000907501000000000000000000000000000000000000000000900460ff168015610d28575060025474010000000000000000000000000000000000000000900460ff165b1515610d7e576040805160e560020a62461bcd02815260206004820152600e60248201527f437572766520696e616374697665000000000000000000000000000000000000604482015290519081900360640190fd5b610e1d82600160009054906101000a9004600160a060020a0316600160a060020a03166318160ddd6040518163ffffffff167c010000000000000000000000000000000000000000000000000000000002815260040160206040518083038186803b158015610dec57600080fd5b505afa158015610e00573d6000803e3d6000fd5b505050506040513d6020811015610e1657600080fd5b505161150d565b5092915050565b60025474010000000000000000000000000000000000000000900460ff1615610e97576040805160e560020a62461bcd02815260206004820152600d60248201527f437572766520697320696e697400000000000000000000000000000000000000604482015290519081900360640190fd5b600154604080517faa271e1a0000000000000000000000000000000000000000000000000000000081523060048201529051600160a060020a039092169163aa271e1a91602480820192602092909190829003018186803b158015610efb57600080fd5b505afa158015610f0f573d6000803e3d6000fd5b505050506040513d6020811015610f2557600080fd5b50511515610f7d576040805160e560020a62461bcd02815260206004820152601360248201527f4375727665206973206e6f74206d696e74657200000000000000000000000000604482015290519081900360640190fd5b600154604080517f18160ddd0000000000000000000000000000000000000000000000000000000081529051600092600160a060020a0316916318160ddd916004808301926020929190829003018186803b158015610fdb57600080fd5b505afa158015610fef573d6000803e3d6000fd5b505050506040513d602081101561100557600080fd5b505190506984595161401484a0000081101561106b576040805160e560020a62461bcd02815260206004820181905260248201527f4375727665206571756174696f6e207265717569726573207072652d6d696e74604482015290519081900360640190fd5b6000611076826114d1565b600254604080517f23b872dd000000000000000000000000000000000000000000000000000000008152336004820152306024820152604481018490529051929350600160a060020a03909116916323b872dd916064808201926020929091908290030181600087803b1580156110ec57600080fd5b505af1158015611100573d6000803e3d6000fd5b505050506040513d602081101561111657600080fd5b50511515611194576040805160e560020a62461bcd02815260206004820152602260248201527f4661696c656420746f20636f6c6c61746572616c697a6564207468652063757260448201527f7665000000000000000000000000000000000000000000000000000000000000606482015290519081900360840190fd5b50506002805474ff00000000000000000000000000000000000000001975ff000000000000000000000000000000000000000000199091167501000000000000000000000000000000000000000000171674010000000000000000000000000000000000000000179055565b600154600160a060020a031690565b611217610b5f565b151561126d576040805160e560020a62461bcd02815260206004820181905260248201527f4f776e61626c653a2063616c6c6572206973206e6f7420746865206f776e6572604482015290519081900360640190fd5b6112768161155d565b50565b60008061128585610ba3565b9050838111156112df576040805160e560020a62461bcd02815260206004820152601760248201527f50726963652065786365656473206d6178207370656e64000000000000000000604482015290519081900360640190fd5b600254604080517f23b872dd000000000000000000000000000000000000000000000000000000008152336004820152306024820152604481018490529051600160a060020a03909216916323b872dd916064808201926020929091908290030181600087803b15801561135257600080fd5b505af1158015611366573d6000803e3d6000fd5b505050506040513d602081101561137c57600080fd5b505115156113d4576040805160e560020a62461bcd02815260206004820152601e60248201527f5472616e7366657272696e6720636f6c6c61746572616c206661696c65640000604482015290519081900360640190fd5b600154604080517f40c10f19000000000000000000000000000000000000000000000000000000008152600160a060020a03868116600483015260248201899052915191909216916340c10f199160448083019260209291908290030181600087803b15801561144357600080fd5b505af1158015611457573d6000803e3d6000fd5b505050506040513d602081101561146d57600080fd5b505115156114c5576040805160e560020a62461bcd02815260206004820152601560248201527f4d696e74696e6720746f6b656e73206661696c65640000000000000000000000604482015290519081900360640190fd5b949350505050565b3390565b6000610b8e8260005b6000806114c56114e98461164b565b6115016114fc868863ffffffff61166616565b61164b565b9063ffffffff6116ca16565b600080838303811061151b57fe5b600061153c6115336114fc868863ffffffff6116ca16565b6115018661164b565b90506000611550828763ffffffff61170c16565b9196919550909350505050565b600160a060020a03811615156115e3576040805160e560020a62461bcd02815260206004820152602660248201527f4f776e61626c653a206e6577206f776e657220697320746865207a65726f206160448201527f6464726573730000000000000000000000000000000000000000000000000000606482015290519081900360840190fd5b60008054604051600160a060020a03808516939216917f8be0079c531659141344cd1fd0a4f28419497f9722a3daafe3b4186f6b6457e091a36000805473ffffffffffffffffffffffffffffffffffffffff1916600160a060020a0392909216919091179055565b6000610b8e6116598361174e565b839063ffffffff61166616565b6000828201838110156116c3576040805160e560020a62461bcd02815260206004820152601b60248201527f536166654d6174683a206164646974696f6e206f766572666c6f770000000000604482015290519081900360640190fd5b9392505050565b60006116c383836040805190810160405280601e81526020017f536166654d6174683a207375627472616374696f6e206f766572666c6f770000815250611796565b60006116c383836040805190810160405280601a81526020017f536166654d6174683a206469766973696f6e206279207a65726f000000000000815250611830565b600060015b6005811161178f576117856984595161401484a00000611779858063ffffffff61189d16565b9063ffffffff61170c16565b9250600101611753565b5090919050565b600081848411156118285760405160e560020a62461bcd0281526004018080602001828103825283818151815260200191508051906020019080838360005b838110156117ed5781810151838201526020016117d5565b50505050905090810190601f16801561181a5780820380516001836020036101000a031916815260200191505b509250505060405180910390fd5b505050900390565b6000818184116118855760405160e560020a62461bcd028152600401808060200182810382528381815181526020019150805190602001908083836000838110156117ed5781810151838201526020016117d5565b506000838581151561189357fe5b0495945050505050565b60008215156118ae57506000610b8e565b8282028284828115156118bd57fe5b04146116c3576040805160e560020a62461bcd02815260206004820152602160248201527f536166654d6174683a206d756c7469706c69636174696f6e206f766572666c6f60448201527f7700000000000000000000000000000000000000000000000000000000000000606482015290519081900360840190fdfea165627a7a72305820a6f62d094b02ce90236ca8b5c45c59b3c74ae658cfa23e1746a9f398f6d088110029",
  "source": "pragma solidity 0.5.0;\r\n\r\nimport \"@openzeppelin/contracts/ownership/Ownable.sol\";\r\nimport \"@openzeppelin/contracts/token/ERC20/IERC20.sol\";\r\nimport \"@openzeppelin/contracts/math/SafeMath.sol\";\r\nimport \"./I_Token.sol\";\r\nimport \"./I_Curve.sol\";\r\n\r\ncontract Curve is Ownable, I_Curve {\r\n    using SafeMath for uint256;\r\n    // The instance of the token this curve controls (has mint rights to)\r\n    I_Token internal bzz_;\r\n    // The instance of the collateral token that is used to buy and sell tokens\r\n    IERC20 internal dai_;\r\n    // Stores if the curve has been initialised\r\n    bool internal init_;\r\n    // The active state of the curve (false after emergency shutdown)\r\n    bool internal active_;\r\n    // Mutex guard for state modifying functions\r\n    uint256 private status_;\r\n    // States for the guard \r\n    uint256 private constant _NOT_ENTERED = 1;\r\n    uint256 private constant _ENTERED = 2;\r\n\r\n    // -------------------------------------------------------------------------\r\n    // Events\r\n    // -------------------------------------------------------------------------\r\n\r\n    // Emitted when tokens are minted\r\n    event mintTokens(\r\n        address indexed buyer,      // The address of the buyer\r\n        uint256 amount,             // The amount of bonded tokens to mint\r\n        uint256 pricePaid,          // The price in collateral tokens \r\n        uint256 maxSpend            // The max amount of collateral to spend\r\n    );\r\n    // Emitted when tokens are minted\r\n    event mintTokensTo(\r\n        address indexed buyer,      // The address of the buyer\r\n        address indexed receiver,   // The address of the receiver of the tokens\r\n        uint256 amount,             // The amount of bonded tokens to mint\r\n        uint256 pricePaid,          // The price in collateral tokens \r\n        uint256 maxSpend            // The max amount of collateral to spend\r\n    );\r\n    // Emitted when tokens are burnt\r\n    event burnTokens(\r\n        address indexed seller,     // The address of the seller\r\n        uint256 amount,             // The amount of bonded tokens to sell\r\n        uint256 rewardReceived,     // The collateral tokens received\r\n        uint256 minReward           // The min collateral reward for tokens\r\n    );\r\n    // Emitted when the curve is permanently shut down\r\n    event shutDownOccurred(address indexed owner);\r\n\r\n    // -------------------------------------------------------------------------\r\n    // Modifiers\r\n    // -------------------------------------------------------------------------\r\n\r\n    /**\r\n      * @notice Requires the curve to be initialised and active.\r\n      */\r\n    modifier isActive() {\r\n        require(active_ && init_, \"Curve inactive\");\r\n        _;\r\n    }\r\n\r\n    /**\r\n      * @notice Protects against re-entrancy attacks\r\n      */\r\n    modifier mutex() {\r\n        require(status_ != _ENTERED, \"ReentrancyGuard: reentrant call\");\r\n        // Any calls to nonReentrant after this point will fail\r\n        status_ = _ENTERED;\r\n        // Function executes\r\n        _;\r\n        // Status set to not entered\r\n        status_ = _NOT_ENTERED;\r\n    }\r\n\r\n    // -------------------------------------------------------------------------\r\n    // Constructor\r\n    // -------------------------------------------------------------------------\r\n\r\n    constructor(address _bondedToken, address _collateralToken) public Ownable() {\r\n        bzz_ = I_Token(_bondedToken);\r\n        dai_ = IERC20(_collateralToken);\r\n        status_ = _NOT_ENTERED;\r\n    }\r\n\r\n    // -------------------------------------------------------------------------\r\n    // View functions\r\n    // -------------------------------------------------------------------------\r\n\r\n    /**\r\n     * @notice This function is only callable after the curve contract has been\r\n     *         initialized.\r\n     * @param  _amount The amount of tokens a user wants to buy\r\n     * @return uint256 The cost to buy the _amount of tokens in the collateral\r\n     *         currency (see collateral token).\r\n     */\r\n    function buyPrice(uint256 _amount)\r\n        public\r\n        view\r\n        isActive()\r\n        returns (uint256 collateralRequired)\r\n    {\r\n        collateralRequired = _mint(_amount, bzz_.totalSupply());\r\n        return collateralRequired;\r\n    }\r\n\r\n    /**\r\n     * @notice This function is only callable after the curve contract has been\r\n     *         initialized.\r\n     * @param  _amount The amount of tokens a user wants to sell\r\n     * @return collateralReward The reward for selling the _amount of tokens in the\r\n     *         collateral currency (see collateral token).\r\n     */\r\n    function sellReward(uint256 _amount)\r\n        public\r\n        view\r\n        isActive()\r\n        returns (uint256 collateralReward)\r\n    {\r\n        (collateralReward, ) = _withdraw(_amount, bzz_.totalSupply());\r\n        return collateralReward;\r\n    }\r\n\r\n    /**\r\n      * @return If the curve is both active and initialised.\r\n      */\r\n    function isCurveActive() public view returns (bool) {\r\n        if (active_ && init_) {\r\n            return true;\r\n        }\r\n        return false;\r\n    }\r\n\r\n    /**\r\n      * @param  _initialSupply The expected initial supply the bonded token\r\n      *         will have.\r\n      * @return The required collateral amount (DAI) to initialise the curve.\r\n      */\r\n    function requiredCollateral(uint256 _initialSupply)\r\n        public\r\n        view\r\n        returns (uint256)\r\n    {\r\n        return _initializeCurve(_initialSupply);\r\n    }\r\n\r\n    /**\r\n      * @return The address of the bonded token (BZZ).\r\n      */\r\n    function bondedToken() external view returns (address) {\r\n        return address(bzz_);\r\n    }\r\n\r\n    /**\r\n      * @return The address of the collateral token (DAI)\r\n      */\r\n    function collateralToken() external view returns (address) {\r\n        return address(dai_);\r\n    }\r\n\r\n    // -------------------------------------------------------------------------\r\n    // State modifying functions\r\n    // -------------------------------------------------------------------------\r\n\r\n    /**\r\n     * @notice This function initializes the curve contract, and ensure the\r\n     *         curve has the required permissions on the token contract needed\r\n     *         to function.\r\n     */\r\n    function init() external {\r\n        // Checks the curve has not already been initialized\r\n        require(!init_, \"Curve is init\");\r\n        // Checks the curve has the correct permissions on the given token\r\n        require(bzz_.isMinter(address(this)), \"Curve is not minter\");\r\n        // Gets the total supply of the token\r\n        uint256 initialSupply = bzz_.totalSupply();\r\n        // The curve requires that the initial supply is at least the expected\r\n        // open market supply\r\n        require(\r\n            initialSupply >= _MARKET_OPENING_SUPPLY,\r\n            \"Curve equation requires pre-mint\"\r\n        );\r\n        // Gets the price for the current supply\r\n        uint256 price = _initializeCurve(initialSupply);\r\n        // Requires the transfer for the collateral needed to back fill for the\r\n        // minted supply\r\n        require(\r\n            dai_.transferFrom(msg.sender, address(this), price),\r\n            \"Failed to collateralized the curve\"\r\n        );\r\n        // Sets the Curve to being active and initialised\r\n        active_ = true;\r\n        init_ = true;\r\n    }\r\n\r\n    /**\r\n      * @param  _amount The amount of tokens (BZZ) the user wants to buy.\r\n      * @param  _maxCollateralSpend The max amount of collateral (DAI) the user is\r\n      *         willing to spend in order to buy the _amount of tokens.\r\n      * @return The status of the mint. Note that should the total cost of the\r\n      *         purchase exceed the _maxCollateralSpend the transaction will revert.\r\n      */\r\n    function mint(\r\n        uint256 _amount, \r\n        uint256 _maxCollateralSpend\r\n    )\r\n        external\r\n        isActive()\r\n        mutex()\r\n        returns (bool success)\r\n    {\r\n        // Gets the price for the amount of tokens\r\n        uint256 price = _commonMint(_amount, _maxCollateralSpend, msg.sender);\r\n        // Emitting event with all important info\r\n        emit mintTokens(\r\n            msg.sender, \r\n            _amount, \r\n            price, \r\n            _maxCollateralSpend\r\n        );\r\n        // Returning that the mint executed successfully\r\n        return true;\r\n    }\r\n\r\n    /**\r\n      * @param  _amount The amount of tokens (BZZ) the user wants to buy.\r\n      * @param  _maxCollateralSpend The max amount of collateral (DAI) the user is\r\n      *         willing to spend in order to buy the _amount of tokens.\r\n      * @param  _to The address to send the tokens to.\r\n      * @return The status of the mint. Note that should the total cost of the\r\n      *         purchase exceed the _maxCollateralSpend the transaction will revert.\r\n      */\r\n    function mintTo(\r\n        uint256 _amount, \r\n        uint256 _maxCollateralSpend, \r\n        address _to\r\n    )\r\n        external\r\n        isActive()\r\n        mutex()\r\n        returns (bool success)\r\n    {\r\n        // Gets the price for the amount of tokens\r\n        uint256 price =  _commonMint(_amount, _maxCollateralSpend, _to);\r\n        // Emitting event with all important info\r\n        emit mintTokensTo(\r\n            msg.sender,\r\n            _to, \r\n            _amount, \r\n            price, \r\n            _maxCollateralSpend\r\n        );\r\n        // Returning that the mint executed successfully\r\n        return true;\r\n    }\r\n\r\n    /**\r\n      * @param  _amount The amount of tokens (BZZ) the user wants to sell.\r\n      * @param  _minCollateralReward The min amount of collateral (DAI) the user is\r\n      *         willing to receive for their tokens.\r\n      * @return The status of the burn. Note that should the total reward of the\r\n      *         burn be below the _minCollateralReward the transaction will revert.\r\n      */\r\n    function redeem(uint256 _amount, uint256 _minCollateralReward)\r\n        external\r\n        isActive()\r\n        mutex()\r\n        returns (bool success)\r\n    {\r\n        // Gets the reward for the amount of tokens\r\n        uint256 reward = sellReward(_amount);\r\n        // Checks the reward has not slipped below the min amount the user\r\n        // wishes to receive.\r\n        require(reward >= _minCollateralReward, \"Reward under min sell\");\r\n        // Burns the number of tokens (fails - no bool return)\r\n        bzz_.burnFrom(msg.sender, _amount);\r\n        // Transfers the reward from the curve to the collateral token\r\n        require(\r\n            dai_.transfer(msg.sender, reward),\r\n            \"Transferring collateral failed\"\r\n        );\r\n        // Emitting event with all important info\r\n        emit burnTokens(\r\n            msg.sender, \r\n            _amount, \r\n            reward, \r\n            _minCollateralReward\r\n        );\r\n        // Returning that the burn executed successfully\r\n        return true;\r\n    }\r\n\r\n    /**\r\n      * @notice Shuts down the curve, disabling buying, selling and both price\r\n      *         functions. Can only be called by the owner. Will renounce the\r\n      *         minter role on the bonded token.\r\n      */\r\n    function shutDown() external onlyOwner() {\r\n        // Removes the curve as a minter on the token\r\n        bzz_.renounceMinter();\r\n        // Irreversibly shuts down the curve\r\n        active_ = false;\r\n        // Emitting address of owner who shut down curve permanently\r\n        emit shutDownOccurred(msg.sender);\r\n    }\r\n\r\n    // -------------------------------------------------------------------------\r\n    // Internal functions\r\n    // -------------------------------------------------------------------------\r\n\r\n    /**\r\n      * @param  _amount The amount of tokens (BZZ) the user wants to buy.\r\n      * @param  _maxCollateralSpend The max amount of collateral (DAI) the user is\r\n      *         willing to spend in order to buy the _amount of tokens.\r\n      * @param  _to The address to send the tokens to.\r\n      * @return uint256 The price the user has paid for buying the _amount of \r\n      *         BUZZ tokens. \r\n      */\r\n    function _commonMint(\r\n        uint256 _amount,\r\n        uint256 _maxCollateralSpend,\r\n        address _to\r\n    )\r\n        internal\r\n        returns(uint256)\r\n    {\r\n        // Gets the price for the amount of tokens\r\n        uint256 price = buyPrice(_amount);\r\n        // Checks the price has not risen above the max amount the user wishes\r\n        // to spend.\r\n        require(price <= _maxCollateralSpend, \"Price exceeds max spend\");\r\n        // Transfers the price of tokens in the collateral token to the curve\r\n        require(\r\n            dai_.transferFrom(msg.sender, address(this), price),\r\n            \"Transferring collateral failed\"\r\n        );\r\n        // Mints the user their tokens\r\n        require(bzz_.mint(_to, _amount), \"Minting tokens failed\");\r\n        // Returns the price the user will pay for buy\r\n        return price;\r\n    }\r\n\r\n    // -------------------------------------------------------------------------\r\n    // Curve mathematical functions\r\n\r\n    uint256 internal constant _BZZ_SCALE = 1e16;\r\n    uint256 internal constant _N = 5;\r\n    uint256 internal constant _MARKET_OPENING_SUPPLY = 62500000 * _BZZ_SCALE;\r\n    // Equation for curve: \r\n\r\n    /**\r\n     * @param   x The supply to calculate at.\r\n     * @return  x^32/_MARKET_OPENING_SUPPLY^5\r\n     * @dev     Calculates the 32 power of `x` (`x` squared 5 times) times a \r\n     *          constant. Each time it squares the function it divides by the \r\n     *          `_MARKET_OPENING_SUPPLY` so when `x` = `_MARKET_OPENING_SUPPLY` \r\n     *          it doesn't change `x`. \r\n     *\r\n     *          `c*x^32` | `c` is chosen in such a way that \r\n     *          `_MARKET_OPENING_SUPPLY` is the fixed point of the helper \r\n     *          function.\r\n     *\r\n     *          The division by `_MARKET_OPENING_SUPPLY` also helps avoid an \r\n     *          overflow.\r\n     *\r\n     *          The `_helper` function is separate to the `_primitiveFunction` \r\n     *          as we modify `x`. \r\n     */\r\n    function _helper(uint256 x) internal view returns (uint256) {\r\n        for (uint256 index = 1; index <= _N; index++) {\r\n            x = (x.mul(x)).div(_MARKET_OPENING_SUPPLY);\r\n        }\r\n        return x;\r\n    }\r\n\r\n    /**\r\n     * @param   s The supply point being calculated for. \r\n     * @return  The amount of DAI required for the requested amount of BZZ (s). \r\n     * @dev     `s` is being added because it is the linear term in the \r\n     *          polynomial (this ensures no free BUZZ tokens).\r\n     *\r\n     *          primitive function equation: s + c*s^32.\r\n     * \r\n     *          See the helper function for the definition of `c`.\r\n     *\r\n     *          Converts from something measured in BZZ (1e16) to dai atomic \r\n     *          units 1e18.\r\n     */\r\n    function _primitiveFunction(uint256 s) internal view returns (uint256) {\r\n        return s.add(_helper(s));\r\n    }\r\n\r\n    /**\r\n     * @param  _supply The number of tokens that exist.\r\n     * @return uint256 The price for the next token up the curve.\r\n     */\r\n    function _spotPrice(uint256 _supply) internal view returns (uint256) {\r\n        return (_primitiveFunction(_supply.add(1)).sub(_primitiveFunction(_supply)));\r\n    }\r\n\r\n    /**\r\n     * @param  _amount The amount of tokens to be minted\r\n     * @param  _currentSupply The current supply of tokens\r\n     * @return uint256 The cost for the tokens\r\n     * @return uint256 The price being paid per token\r\n     */\r\n    function _mint(uint256 _amount, uint256 _currentSupply)\r\n        internal\r\n        view\r\n        returns (uint256)\r\n    {\r\n        uint256 deltaR = _primitiveFunction(_currentSupply.add(_amount)).sub(\r\n            _primitiveFunction(_currentSupply));\r\n        return deltaR;\r\n    }\r\n\r\n    /**\r\n     * @param  _amount The amount of tokens to be sold\r\n     * @param  _currentSupply The current supply of tokens\r\n     * @return uint256 The reward for the tokens\r\n     * @return uint256 The price being received per token\r\n     */\r\n    function _withdraw(uint256 _amount, uint256 _currentSupply)\r\n        internal\r\n        view\r\n        returns (uint256, uint256)\r\n    {\r\n        assert(_currentSupply - _amount > 0);\r\n        uint256 deltaR = _primitiveFunction(_currentSupply).sub(\r\n            _primitiveFunction(_currentSupply.sub(_amount)));\r\n        uint256 realized_price = deltaR.div(_amount);\r\n        return (deltaR, realized_price);\r\n    }\r\n\r\n    /**\r\n     * @param  _initial_supply The supply the curve is going to start with.\r\n     * @return initial_reserve How much collateral is needed to collateralized\r\n     *         the bonding curve.\r\n     * @return price The price being paid per token (averaged).\r\n     */\r\n    function _initializeCurve(uint256 _initial_supply)\r\n        internal\r\n        view\r\n        returns (uint256 price)\r\n    {\r\n        price = _mint(_initial_supply, 0);\r\n        return price;\r\n    }\r\n}\r\n",
  "sourcePath": "C:\\Projects\\Swarm\\swarm-curve\\Blockchain\\contracts\\Curve.sol",
  "compiler": {
    "name": "solc",
    "version": "0.5.0+commit.1d4f565a.Emscripten.clang",
    "optimizer": true,
    "runs": 500
  },
  "schemaVersion": "2.3.3",
  "updatedAt": "2021-03-10T09:07:12.142Z"
}