{
  "contractName": "Eth_broker",
  "abi": [
    {
      "inputs": [
        {
          "name": "_bzzCurve",
          "type": "address"
        },
        {
          "name": "_collateralToken",
          "type": "address"
        },
        {
          "name": "_router02",
          "type": "address"
        }
      ],
      "payable": false,
      "stateMutability": "nonpayable",
      "type": "constructor"
    },
    {
      "payable": true,
      "stateMutability": "payable",
      "type": "fallback"
    },
    {
      "anonymous": false,
      "inputs": [
        {
          "indexed": true,
          "name": "buyer",
          "type": "address"
        },
        {
          "indexed": false,
          "name": "amount",
          "type": "uint256"
        },
        {
          "indexed": false,
          "name": "priceForTokensDai",
          "type": "uint256"
        },
        {
          "indexed": false,
          "name": "EthTradedForDai",
          "type": "uint256"
        },
        {
          "indexed": false,
          "name": "maxSpendDai",
          "type": "uint256"
        }
      ],
      "name": "mintTokensWithEth",
      "type": "event"
    },
    {
      "anonymous": false,
      "inputs": [
        {
          "indexed": true,
          "name": "buyer",
          "type": "address"
        },
        {
          "indexed": true,
          "name": "receiver",
          "type": "address"
        },
        {
          "indexed": false,
          "name": "amount",
          "type": "uint256"
        },
        {
          "indexed": false,
          "name": "priceForTokensDai",
          "type": "uint256"
        },
        {
          "indexed": false,
          "name": "EthTradedForDai",
          "type": "uint256"
        },
        {
          "indexed": false,
          "name": "maxSpendDai",
          "type": "uint256"
        }
      ],
      "name": "mintTokensToWithEth",
      "type": "event"
    },
    {
      "anonymous": false,
      "inputs": [
        {
          "indexed": true,
          "name": "seller",
          "type": "address"
        },
        {
          "indexed": false,
          "name": "amount",
          "type": "uint256"
        },
        {
          "indexed": false,
          "name": "rewardReceivedDai",
          "type": "uint256"
        },
        {
          "indexed": false,
          "name": "ethReceivedForDai",
          "type": "uint256"
        },
        {
          "indexed": false,
          "name": "minRewardDai",
          "type": "uint256"
        }
      ],
      "name": "burnTokensWithEth",
      "type": "event"
    },
    {
      "constant": true,
      "inputs": [
        {
          "name": "_amount",
          "type": "uint256"
        }
      ],
      "name": "buyPrice",
      "outputs": [
        {
          "name": "",
          "type": "uint256"
        }
      ],
      "payable": false,
      "stateMutability": "view",
      "type": "function"
    },
    {
      "constant": true,
      "inputs": [
        {
          "name": "_amount",
          "type": "uint256"
        }
      ],
      "name": "sellReward",
      "outputs": [
        {
          "name": "",
          "type": "uint256"
        }
      ],
      "payable": false,
      "stateMutability": "view",
      "type": "function"
    },
    {
      "constant": true,
      "inputs": [
        {
          "name": "_daiAmount",
          "type": "uint256"
        }
      ],
      "name": "sellRewardDai",
      "outputs": [
        {
          "name": "",
          "type": "uint256"
        }
      ],
      "payable": false,
      "stateMutability": "view",
      "type": "function"
    },
    {
      "constant": true,
      "inputs": [
        {
          "name": "_buy",
          "type": "bool"
        }
      ],
      "name": "getPath",
      "outputs": [
        {
          "name": "",
          "type": "address[]"
        }
      ],
      "payable": false,
      "stateMutability": "view",
      "type": "function"
    },
    {
      "constant": true,
      "inputs": [],
      "name": "getTime",
      "outputs": [
        {
          "name": "",
          "type": "uint256"
        }
      ],
      "payable": false,
      "stateMutability": "view",
      "type": "function"
    },
    {
      "constant": false,
      "inputs": [
        {
          "name": "_tokenAmount",
          "type": "uint256"
        },
        {
          "name": "_maxDaiSpendAmount",
          "type": "uint256"
        },
        {
          "name": "_deadline",
          "type": "uint256"
        }
      ],
      "name": "mint",
      "outputs": [
        {
          "name": "",
          "type": "bool"
        }
      ],
      "payable": true,
      "stateMutability": "payable",
      "type": "function"
    },
    {
      "constant": false,
      "inputs": [
        {
          "name": "_tokenAmount",
          "type": "uint256"
        },
        {
          "name": "_maxDaiSpendAmount",
          "type": "uint256"
        },
        {
          "name": "_deadline",
          "type": "uint256"
        },
        {
          "name": "_to",
          "type": "address"
        }
      ],
      "name": "mintTo",
      "outputs": [
        {
          "name": "",
          "type": "bool"
        }
      ],
      "payable": true,
      "stateMutability": "payable",
      "type": "function"
    },
    {
      "constant": false,
      "inputs": [
        {
          "name": "_tokenAmount",
          "type": "uint256"
        },
        {
          "name": "_minDaiSellValue",
          "type": "uint256"
        },
        {
          "name": "_deadline",
          "type": "uint256"
        }
      ],
      "name": "redeem",
      "outputs": [
        {
          "name": "",
          "type": "bool"
        }
      ],
      "payable": true,
      "stateMutability": "payable",
      "type": "function"
    }
  ],
  "bytecode": "0x608060405234801561001057600080fd5b5060405160608062001c3f8339810180604052606081101561003157600080fd5b5080516020820151604090920151909190600160a060020a038316158015906100625750600160a060020a03821615155b80156100765750600160a060020a03811615155b151561010957604080517f08c379a000000000000000000000000000000000000000000000000000000000815260206004820152602b60248201527f416464726573736573206f6620636f6e7472616374732063616e6e6f7420626560448201527f2030782061646472657373000000000000000000000000000000000000000000606482015290519081900360840190fd5b60008054600160a060020a03808616600160a060020a031992831617928390556002805486831690841617905560018054858316931692909217909155604080517fe36a4ec70000000000000000000000000000000000000000000000000000000081529051929091169163e36a4ec791600480820192602092909190829003018186803b15801561019a57600080fd5b505afa1580156101ae573d6000803e3d6000fd5b505050506040513d60208110156101c457600080fd5b505160038054600160a060020a03909216600160a060020a0319909216919091179055505050611a4580620001fa6000396000f3fe6080604052600436106100745763ffffffff60e060020a60003504166302acc94b81146100d85780631cb0cbbc1461011557806322937f8414610191578063557ed1ba146101cd578063b8192205146101e2578063be228dcc1461020b578063c4dbf62214610243578063c9f1dba81461026d575b600154600160a060020a031633146100d6576040805160e560020a62461bcd02815260206004820152601f60248201527f455448206e6f74206163636570746564206f75747369646520726f7574657200604482015290519081900360640190fd5b005b610101600480360360608110156100ee57600080fd5b5080359060208101359060400135610297565b604080519115158252519081900360200190f35b34801561012157600080fd5b506101416004803603602081101561013857600080fd5b5035151561043b565b60408051602080825283518183015283519192839290830191858101910280838360005b8381101561017d578181015183820152602001610165565b505050509050019250505060405180910390f35b34801561019d57600080fd5b506101bb600480360360208110156101b457600080fd5b503561061a565b60408051918252519081900360200190f35b3480156101d957600080fd5b506101bb610832565b610101600480360360608110156101f857600080fd5b5080359060208101359060400135610836565b6101016004803603608081101561022157600080fd5b5080359060208101359060408101359060600135600160a060020a031661101d565b34801561024f57600080fd5b506101bb6004803603602081101561026657600080fd5b50356111ce565b34801561027957600080fd5b506101bb6004803603602081101561029057600080fd5b503561147e565b60008060009054906101000a9004600160a060020a0316600160a060020a03166305a27c9d6040518163ffffffff1660e060020a02815260040160206040518083038186803b1580156102e957600080fd5b505afa1580156102fd573d6000803e3d6000fd5b505050506040513d602081101561031357600080fd5b5051151561036b576040805160e560020a62461bcd02815260206004820152600e60248201527f437572766520696e616374697665000000000000000000000000000000000000604482015290519081900360640190fd5b600454600214156103c6576040805160e560020a62461bcd02815260206004820152601f60248201527f5265656e7472616e637947756172643a207265656e7472616e742063616c6c00604482015290519081900360640190fd5b60026004556000806103da868686336115b8565b604080518981526020810184905280820183905260608101899052905192945090925033917f4327eea945b1ba6ff37d2123b5d61dc45738400e84b80b918df27bf18c8c3b0b9181900360800190a260019250505060016004559392505050565b604080516002808252606080830184529283929190602083019080388339019050509050821561053757600160009054906101000a9004600160a060020a0316600160a060020a031663ad5c46486040518163ffffffff1660e060020a02815260040160206040518083038186803b1580156104b657600080fd5b505afa1580156104ca573d6000803e3d6000fd5b505050506040513d60208110156104e057600080fd5b50518151829060009081106104f157fe5b600160a060020a039283166020918202909201015260025482519116908290600190811061051b57fe5b600160a060020a03909216602092830290910190910152610614565b6002548151600160a060020a03909116908290600090811061055557fe5b600160a060020a039283166020918202909201810191909152600154604080517fad5c46480000000000000000000000000000000000000000000000000000000081529051919093169263ad5c4648926004808301939192829003018186803b1580156105c157600080fd5b505afa1580156105d5573d6000803e3d6000fd5b505050506040513d60208110156105eb57600080fd5b50518151829060019081106105fc57fe5b600160a060020a039092166020928302909101909101525b92915050565b60008060009054906101000a9004600160a060020a0316600160a060020a03166305a27c9d6040518163ffffffff1660e060020a02815260040160206040518083038186803b15801561066c57600080fd5b505afa158015610680573d6000803e3d6000fd5b505050506040513d602081101561069657600080fd5b505115156106ee576040805160e560020a62461bcd02815260206004820152600e60248201527f437572766520696e616374697665000000000000000000000000000000000000604482015290519081900360640190fd5b60018054600160a060020a031690631f00ca7490849061070d9061043b565b6040805160e060020a63ffffffff86160281526004810184815260248201928352835160448301528351909291606401906020858101910280838360005b8381101561076357818101518382015260200161074b565b50505050905001935050505060006040518083038186803b15801561078757600080fd5b505afa15801561079b573d6000803e3d6000fd5b505050506040513d6000823e601f3d908101601f1916820160405260208110156107c457600080fd5b8101908080516401000000008111156107dc57600080fd5b820160208101848111156107ef57600080fd5b815185602082028301116401000000008211171561080c57600080fd5b50508051909350600092508210905061082157fe5b906020019060200201519050919050565b4290565b60008060009054906101000a9004600160a060020a0316600160a060020a03166305a27c9d6040518163ffffffff1660e060020a02815260040160206040518083038186803b15801561088857600080fd5b505afa15801561089c573d6000803e3d6000fd5b505050506040513d60208110156108b257600080fd5b5051151561090a576040805160e560020a62461bcd02815260206004820152600e60248201527f437572766520696e616374697665000000000000000000000000000000000000604482015290519081900360640190fd5b60045460021415610965576040805160e560020a62461bcd02815260206004820152601f60248201527f5265656e7472616e637947756172643a207265656e7472616e742063616c6c00604482015290519081900360640190fd5b6002600490815560008054604080517fc9f1dba8000000000000000000000000000000000000000000000000000000008152938401889052519192600160a060020a039091169163c9f1dba891602480820192602092909190829003018186803b1580156109d257600080fd5b505afa1580156109e6573d6000803e3d6000fd5b505050506040513d60208110156109fc57600080fd5b5051600354604080517f23b872dd000000000000000000000000000000000000000000000000000000008152336004820152306024820152604481018990529051929350600160a060020a03909116916323b872dd916064808201926020929091908290030181600087803b158015610a7457600080fd5b505af1158015610a88573d6000803e3d6000fd5b505050506040513d6020811015610a9e57600080fd5b50511515610af6576040805160e560020a62461bcd02815260206004820152601760248201527f5472616e7366657272696e6720425a5a206661696c6564000000000000000000604482015290519081900360640190fd5b60035460008054604080517f095ea7b3000000000000000000000000000000000000000000000000000000008152600160a060020a039283166004820152602481018a90529051919093169263095ea7b39260448083019360209390929083900390910190829087803b158015610b6c57600080fd5b505af1158015610b80573d6000803e3d6000fd5b505050506040513d6020811015610b9657600080fd5b50511515610bee576040805160e560020a62461bcd02815260206004820152601260248201527f425a5a20617070726f7665206661696c65640000000000000000000000000000604482015290519081900360640190fd5b60008054604080517f7cbc237300000000000000000000000000000000000000000000000000000000815260048101899052602481018590529051600160a060020a0390921692637cbc2373926044808401936020939083900390910190829087803b158015610c5d57600080fd5b505af1158015610c71573d6000803e3d6000fd5b505050506040513d6020811015610c8757600080fd5b50511515610cdf576040805160e560020a62461bcd02815260206004820152601160248201527f4375727665206275726e206661696c6564000000000000000000000000000000604482015290519081900360640190fd5b600254604080517f70a082310000000000000000000000000000000000000000000000000000000081523060048201529051600092610d7b92600160a060020a03909116916370a0823191602480820192602092909190829003018186803b158015610d4a57600080fd5b505afa158015610d5e573d6000803e3d6000fd5b505050506040513d6020811015610d7457600080fd5b505161061a565b600254600154604080517f095ea7b3000000000000000000000000000000000000000000000000000000008152600160a060020a03928316600482015260248101879052905193945091169163095ea7b3916044808201926020929091908290030181600087803b158015610def57600080fd5b505af1158015610e03573d6000803e3d6000fd5b505050506040513d6020811015610e1957600080fd5b50511515610e71576040805160e560020a62461bcd02815260206004820152601260248201527f44414920617070726f7665206661696c65640000000000000000000000000000604482015290519081900360640190fd5b600154600160a060020a03166318cbafe58383610e8e600061043b565b33896040518663ffffffff1660e060020a028152600401808681526020018581526020018060200184600160a060020a0316600160a060020a03168152602001838152602001828103825285818151815260200191508051906020019060200280838360005b83811015610f0c578181015183820152602001610ef4565b505050509050019650505050505050600060405180830381600087803b158015610f3557600080fd5b505af1158015610f49573d6000803e3d6000fd5b505050506040513d6000823e601f3d908101601f191682016040526020811015610f7257600080fd5b810190808051640100000000811115610f8a57600080fd5b82016020810184811115610f9d57600080fd5b8151856020820283011164010000000082111715610fba57600080fd5b5050604080518b815260208101889052808201879052606081018b905290513395507fe1da4be543e2eabcb36806b05a91cee4d2eefa7ad5e71dc73333c5c8d42b64c894509081900360800192509050a260019250505060016004559392505050565b60008060009054906101000a9004600160a060020a0316600160a060020a03166305a27c9d6040518163ffffffff1660e060020a02815260040160206040518083038186803b15801561106f57600080fd5b505afa158015611083573d6000803e3d6000fd5b505050506040513d602081101561109957600080fd5b505115156110f1576040805160e560020a62461bcd02815260206004820152600e60248201527f437572766520696e616374697665000000000000000000000000000000000000604482015290519081900360640190fd5b6004546002141561114c576040805160e560020a62461bcd02815260206004820152601f60248201527f5265656e7472616e637947756172643a207265656e7472616e742063616c6c00604482015290519081900360640190fd5b6002600455600080611160878787876115b8565b604080518a815260208101849052808201839052606081018a90529051929450909250600160a060020a0386169133917f941fec67f36fd219de33f2cbbde64befe6b267982e50ee0f76e9b1b8446c4ca6919081900360800190a36001925050506001600455949350505050565b60008060009054906101000a9004600160a060020a0316600160a060020a03166305a27c9d6040518163ffffffff1660e060020a02815260040160206040518083038186803b15801561122057600080fd5b505afa158015611234573d6000803e3d6000fd5b505050506040513d602081101561124a57600080fd5b505115156112a2576040805160e560020a62461bcd02815260206004820152600e60248201527f437572766520696e616374697665000000000000000000000000000000000000604482015290519081900360640190fd5b60008054604080517fc4dbf622000000000000000000000000000000000000000000000000000000008152600481018690529051600160a060020a039092169163c4dbf62291602480820192602092909190829003018186803b15801561130857600080fd5b505afa15801561131c573d6000803e3d6000fd5b505050506040513d602081101561133257600080fd5b505160018054919250600160a060020a0390911690631f00ca749083906113589061043b565b6040805160e060020a63ffffffff86160281526004810184815260248201928352835160448301528351909291606401906020858101910280838360005b838110156113ae578181015183820152602001611396565b50505050905001935050505060006040518083038186803b1580156113d257600080fd5b505afa1580156113e6573d6000803e3d6000fd5b505050506040513d6000823e601f3d908101601f19168201604052602081101561140f57600080fd5b81019080805164010000000081111561142757600080fd5b8201602081018481111561143a57600080fd5b815185602082028301116401000000008211171561145757600080fd5b50508051909350600092508210905061146c57fe5b90602001906020020151915050919050565b60008060009054906101000a9004600160a060020a0316600160a060020a03166305a27c9d6040518163ffffffff1660e060020a02815260040160206040518083038186803b1580156114d057600080fd5b505afa1580156114e4573d6000803e3d6000fd5b505050506040513d60208110156114fa57600080fd5b50511515611552576040805160e560020a62461bcd02815260206004820152600e60248201527f437572766520696e616374697665000000000000000000000000000000000000604482015290519081900360640190fd5b60008054604080517fc9f1dba8000000000000000000000000000000000000000000000000000000008152600481018690529051600160a060020a039092169163c9f1dba891602480820192602092909190829003018186803b15801561130857600080fd5b60008054604080517fc4dbf6220000000000000000000000000000000000000000000000000000000081526004810188905290518392600160a060020a03169163c4dbf622916024808301926020929190829003018186803b15801561161d57600080fd5b505afa158015611631573d6000803e3d6000fd5b505050506040513d602081101561164757600080fd5b50519150818510156116a3576040805160e560020a62461bcd02815260206004820181905260248201527f44414920726571756972656420666f722074726164652061626f7665206d6178604482015290519081900360640190fd5b60018054600160a060020a03169063fb3bdb4190349085906116c49061043b565b30896040518663ffffffff1660e060020a028152600401808581526020018060200184600160a060020a0316600160a060020a03168152602001838152602001828103825285818151815260200191508051906020019060200280838360005b8381101561173c578181015183820152602001611724565b50505050905001955050505050506000604051808303818588803b15801561176357600080fd5b505af1158015611777573d6000803e3d6000fd5b50505050506040513d6000823e601f3d908101601f1916820160405260208110156117a157600080fd5b8101908080516401000000008111156117b957600080fd5b820160208101848111156117cc57600080fd5b81518560208202830111640100000000821117156117e957600080fd5b505060025460008054604080517f095ea7b3000000000000000000000000000000000000000000000000000000008152600160a060020a039283166004820152602481018b905290513031995093909116965063095ea7b395506044808201955060209450908390030190829087803b15801561186557600080fd5b505af1158015611879573d6000803e3d6000fd5b505050506040513d602081101561188f57600080fd5b505115156118e7576040805160e560020a62461bcd02815260206004820152601260248201527f44414920617070726f7665206661696c65640000000000000000000000000000604482015290519081900360640190fd5b60008054604080517f6190e3a8000000000000000000000000000000000000000000000000000000008152600481018a905260248101869052600160a060020a03878116604483015291519190921692636190e3a892606480820193602093909283900390910190829087803b15801561196057600080fd5b505af1158015611974573d6000803e3d6000fd5b505050506040513d602081101561198a57600080fd5b505115156119e2576040805160e560020a62461bcd02815260206004820152601160248201527f425a5a206d696e74546f206661696c6564000000000000000000000000000000604482015290519081900360640190fd5b604051339082156108fc029083906000818181858888f19350505050158015611a0f573d6000803e3d6000fd5b509450949250505056fea165627a7a72305820c304f8cdb6bd042456264a8977dfa113a15bb9ef6c435379b934f2efcad0f7d30029",
  "source": "pragma solidity 0.5.0;\r\n\r\nimport \"./I_Curve.sol\";\r\nimport \"./I_router_02.sol\";\r\nimport \"@openzeppelin/contracts/token/ERC20/IERC20.sol\";\r\n\r\ncontract Eth_broker {\r\n    // The instance of the curve\r\n    I_Curve internal curve_;\r\n    // The instance of the Uniswap router\r\n    I_router_02 internal router_;\r\n    // The instance of the DAI token\r\n    IERC20 internal dai_;\r\n    // The address for the underlying token address\r\n    IERC20 internal bzz_;\r\n    // Mutex guard for state modifying functions\r\n    uint256 private status_;\r\n    // States for the guard \r\n    uint256 private constant _NOT_ENTERED = 1;\r\n    uint256 private constant _ENTERED = 2;\r\n\r\n    // -------------------------------------------------------------------------\r\n    // Events\r\n    // -------------------------------------------------------------------------\r\n\r\n    // Emitted when tokens are minted\r\n    event mintTokensWithEth(\r\n        address indexed buyer,      // The address of the buyer\r\n        uint256 amount,             // The amount of bonded tokens to mint\r\n        uint256 priceForTokensDai,  // The price in DAI for the token amount\r\n        uint256 EthTradedForDai,    // The ETH amount sold for DAI\r\n        uint256 maxSpendDai         // The max amount of DAI to spend\r\n    );\r\n    // Emitted when tokens are minted\r\n    event mintTokensToWithEth(\r\n        address indexed buyer,      // The address of the buyer\r\n        address indexed receiver,   // The address of the receiver of the tokens\r\n        uint256 amount,             // The amount of bonded tokens to mint\r\n        uint256 priceForTokensDai,  // The price in DAI for the token amount\r\n        uint256 EthTradedForDai,    // The ETH amount sold for DAI\r\n        uint256 maxSpendDai         // The max amount of DAI to spend\r\n    );\r\n    // Emitted when tokens are burnt\r\n    event burnTokensWithEth(\r\n        address indexed seller,     // The address of the seller\r\n        uint256 amount,             // The amount of bonded tokens to burn\r\n        uint256 rewardReceivedDai,  // The amount of DAI received for selling\r\n        uint256 ethReceivedForDai,  // How much ETH the DAI was traded for\r\n        uint256 minRewardDai        // The min amount of DAI to sell for\r\n    );\r\n\r\n    // -------------------------------------------------------------------------\r\n    // Modifiers\r\n    // -------------------------------------------------------------------------\r\n\r\n    /**\r\n      * @notice Checks if the curve is active (may be redundant).\r\n      */\r\n    modifier isCurveActive() {\r\n        require(curve_.isCurveActive(), \"Curve inactive\");\r\n        _;\r\n    }\r\n\r\n    /**\r\n      * @notice Protects against re-entrancy attacks\r\n      */\r\n    modifier mutex() {\r\n        require(status_ != _ENTERED, \"ReentrancyGuard: reentrant call\");\r\n        // Any calls to non Reentrant after this point will fail\r\n        status_ = _ENTERED;\r\n        // Function executes\r\n        _;\r\n        // Status set to not entered\r\n        status_ = _NOT_ENTERED;\r\n    }\r\n\r\n    // -------------------------------------------------------------------------\r\n    // Constructor\r\n    // -------------------------------------------------------------------------\r\n\r\n    constructor(\r\n        address _bzzCurve, \r\n        address _collateralToken, \r\n        address _router02\r\n    ) \r\n        public \r\n    {\r\n        require(\r\n            _bzzCurve != address(0) &&\r\n            _collateralToken != address(0) &&\r\n            _router02 != address(0),\r\n            \"Addresses of contracts cannot be 0x address\"\r\n        );\r\n        curve_ = I_Curve(_bzzCurve);\r\n        dai_ = IERC20(_collateralToken);\r\n        router_ = I_router_02(_router02);\r\n        // Setting the address of the underlying token (BZZ)\r\n        bzz_ = IERC20(curve_.bondedToken());\r\n    }\r\n\r\n    // -------------------------------------------------------------------------\r\n    // View functions\r\n    // -------------------------------------------------------------------------\r\n\r\n    /**\r\n     * @notice This function is only callable after the curve contract has been\r\n     *         initialized.\r\n     * @param  _amount The amount of tokens a user wants to buy\r\n     * @return uint256 The cost to buy the _amount of tokens in ETH\r\n     */\r\n    function buyPrice(uint256 _amount)\r\n        public\r\n        view\r\n        isCurveActive()\r\n        returns (uint256)\r\n    {\r\n        // Getting the current DAI cost for token amount\r\n        uint256 daiCost = curve_.buyPrice(_amount);\r\n        // Returning the required ETH to buy DAI amount\r\n        return router_.getAmountsIn(\r\n            daiCost, \r\n            getPath(true)\r\n        )[0];\r\n    }\r\n\r\n    /**\r\n     * @notice This function is only callable after the curve contract has been\r\n     *         initialized.\r\n     * @param  _amount The amount of tokens a user wants to sell\r\n     * @return uint256 The reward for selling the _amount of tokens in ETH\r\n     */\r\n    function sellReward(uint256 _amount)\r\n        public\r\n        view\r\n        isCurveActive()\r\n        returns (uint256)\r\n    {\r\n        // Getting the current DAI reward for token amount\r\n        uint256 daiReward = curve_.sellReward(_amount);\r\n        // Returning the ETH reward for token sale\r\n        return router_.getAmountsIn(\r\n            daiReward, \r\n            getPath(true)\r\n        )[0];\r\n    }\r\n    \r\n    /**\r\n      * @param  _daiAmount The amount of dai to be traded for ETH\r\n      * @return uint256 The amount of ETH that can be traded for given the\r\n      *         dai amount\r\n      */\r\n    function sellRewardDai(uint256 _daiAmount)\r\n        public\r\n        view\r\n        isCurveActive()\r\n        returns (uint256)\r\n    {\r\n        // Returning the ETH reward for the dai amount\r\n        return router_.getAmountsIn(\r\n            _daiAmount, \r\n            getPath(true)\r\n        )[0];\r\n    }\r\n    \r\n    /**\r\n      * @param  _buy If the path is for a buy or sell transaction\r\n      * @return address[] The path for the transaction\r\n      */\r\n    function getPath(bool _buy) public view returns(address[] memory) {\r\n        address[] memory buyPath = new address[](2);\r\n        if(_buy) {\r\n            buyPath[0] = router_.WETH();\r\n            buyPath[1] = address(dai_);\r\n        } else {\r\n            buyPath[0] = address(dai_);\r\n            buyPath[1] = router_.WETH();\r\n        }\r\n        \r\n        return buyPath;\r\n    }\r\n    \r\n    /**\r\n      * @return Gets the current time\r\n      */\r\n    function getTime() public view returns(uint256) {\r\n        return now;\r\n    }\r\n\r\n    // -------------------------------------------------------------------------\r\n    // State modifying functions\r\n    // -------------------------------------------------------------------------\r\n\r\n    /**\r\n      * @param  _tokenAmount The amount of BZZ tokens the user would like to\r\n      *         buy from the curve.\r\n      * @param  _maxDaiSpendAmount The max amount of collateral (DAI) the user\r\n      *         is willing to spend to buy the amount of tokens.\r\n      * @param  _deadline Unix timestamp after which the transaction will \r\n      *         revert. - Taken from Uniswap documentation: \r\n      *         https://uniswap.org/docs/v2/smart-contracts/router02/#swapethforexacttokens\r\n      * @return bool If the transaction completed successfully.\r\n      * @notice Before this function is called the caller does not need to\r\n      *         approve the spending of anything. Please assure that the amount\r\n      *         of ETH sent with this transaction is sufficient by first calling\r\n      *         `buyPrice` with the same token amount. Add your % slippage to\r\n      *         the max dai spend amount (you can get the expected amount by \r\n      *         calling `buyPrice` on the curve contract).\r\n      */\r\n    function mint(\r\n        uint256 _tokenAmount, \r\n        uint256 _maxDaiSpendAmount, \r\n        uint _deadline\r\n    )\r\n        external\r\n        payable\r\n        isCurveActive()\r\n        mutex()\r\n        returns (bool)\r\n    {\r\n        (uint256 daiNeeded, uint256 ethReceived) = _commonMint(\r\n            _tokenAmount,\r\n            _maxDaiSpendAmount,\r\n            _deadline,\r\n            msg.sender\r\n        );\r\n        // Emitting event with all important info\r\n        emit mintTokensWithEth(\r\n            msg.sender, \r\n            _tokenAmount, \r\n            daiNeeded, \r\n            ethReceived, \r\n            _maxDaiSpendAmount\r\n        );\r\n        // Returning that the mint executed successfully\r\n        return true;\r\n    }\r\n\r\n    /**\r\n      * @param  _tokenAmount The amount of BZZ tokens the user would like to\r\n      *         buy from the curve.\r\n      * @param  _maxDaiSpendAmount The max amount of collateral (DAI) the user\r\n      *         is willing to spend to buy the amount of tokens.\r\n      * @param  _deadline Unix timestamp after which the transaction will \r\n      *         revert. - Taken from Uniswap documentation: \r\n      *         https://uniswap.org/docs/v2/smart-contracts/router02/#swapethforexacttokens\r\n      * @return bool If the transaction completed successfully.\r\n      * @notice Before this function is called the caller does not need to\r\n      *         approve the spending of anything. Please assure that the amount\r\n      *         of ETH sent with this transaction is sufficient by first calling\r\n      *         `buyPrice` with the same token amount. Add your % slippage to\r\n      *         the max dai spend amount (you can get the expected amount by \r\n      *         calling `buyPrice` on the curve contract).\r\n      */\r\n    function mintTo(\r\n        uint256 _tokenAmount, \r\n        uint256 _maxDaiSpendAmount, \r\n        uint _deadline,\r\n        address _to\r\n    )\r\n        external\r\n        payable\r\n        isCurveActive()\r\n        mutex()\r\n        returns (bool)\r\n    {\r\n        (uint256 daiNeeded, uint256 ethReceived) = _commonMint(\r\n            _tokenAmount,\r\n            _maxDaiSpendAmount,\r\n            _deadline,\r\n            _to\r\n        );\r\n        // Emitting event with all important info\r\n        emit mintTokensToWithEth(\r\n            msg.sender, \r\n            _to,\r\n            _tokenAmount, \r\n            daiNeeded, \r\n            ethReceived, \r\n            _maxDaiSpendAmount\r\n        );\r\n        // Returning that the mint executed successfully\r\n        return true;\r\n    }\r\n\r\n    /**\r\n      * @notice The user needs to have approved this contract as a spender of\r\n      *         of the desired `_tokenAmount` to sell before calling this\r\n      *         transaction. Failure to do so will result in the call reverting.\r\n      *         This function is payable to receive ETH from internal calls.\r\n      *         Please do not send ETH to this function.\r\n      * @param  _tokenAmount The amount of BZZ tokens the user would like to\r\n      *         sell.\r\n      * @param  _minDaiSellValue The min value of collateral (DAI) the user\r\n      *         is willing to sell their tokens for.\r\n      * @param  _deadline Unix timestamp after which the transaction will \r\n      *         revert. - Taken from Uniswap documentation: \r\n      *         https://uniswap.org/docs/v2/smart-contracts/router02/#swapexacttokensforeth\r\n      * @return bool If the transaction completed successfully.\r\n      */\r\n    function redeem(\r\n        uint256 _tokenAmount, \r\n        uint256 _minDaiSellValue,\r\n        uint _deadline\r\n    )\r\n        external\r\n        payable\r\n        isCurveActive()\r\n        mutex()\r\n        returns (bool)\r\n    {\r\n        // Gets the current reward for selling the amount of tokens\r\n        uint256 daiReward = curve_.sellReward(_tokenAmount);\r\n        // The check that the dai reward amount is not more than the min sell \r\n        // amount happens in the curve.\r\n\r\n        // Transferring _amount of tokens into this contract\r\n        require(\r\n            bzz_.transferFrom(\r\n                msg.sender,\r\n                address(this),\r\n                _tokenAmount\r\n            ),\r\n            \"Transferring BZZ failed\"\r\n        );\r\n        // Approving the curve as a spender\r\n        require(\r\n            bzz_.approve(\r\n                address(curve_),\r\n                _tokenAmount\r\n            ),\r\n            \"BZZ approve failed\"\r\n        );\r\n        // Selling tokens for DAI\r\n        require(\r\n            curve_.redeem(\r\n                _tokenAmount,\r\n                daiReward\r\n            ),\r\n            \"Curve burn failed\"\r\n        );\r\n        // Getting expected ETH for DAI\r\n        uint256 ethMin = sellRewardDai(dai_.balanceOf(address(this)));\r\n        // Approving the router as a spender\r\n        require(\r\n            dai_.approve(\r\n                address(router_),\r\n                daiReward\r\n            ),\r\n            \"DAI approve failed\"\r\n        );\r\n        // Selling DAI received for ETH\r\n        router_.swapExactTokensForETH(\r\n            daiReward, \r\n            ethMin, \r\n            getPath(false), \r\n            msg.sender, \r\n            _deadline\r\n        );\r\n        // Emitting event with all important info\r\n        emit burnTokensWithEth(\r\n            msg.sender, \r\n            _tokenAmount, \r\n            daiReward, \r\n            ethMin, \r\n            _minDaiSellValue\r\n        );\r\n        // Returning that the burn executed successfully\r\n        return true;\r\n    }\r\n\r\n    function() external payable {\r\n        require(\r\n            msg.sender == address(router_),\r\n            \"ETH not accepted outside router\"\r\n        );\r\n    }\r\n\r\n\r\n    // -------------------------------------------------------------------------\r\n    // Internal functions\r\n    // -------------------------------------------------------------------------\r\n\r\n    /**\r\n      * @param  _tokenAmount The amount of BZZ tokens the user would like to\r\n      *         buy from the curve.\r\n      * @param  _maxDaiSpendAmount The max amount of collateral (DAI) the user\r\n      *         is willing to spend to buy the amount of tokens.\r\n      * @param  _deadline Unix timestamp after which the transaction will \r\n      *         revert. - Taken from Uniswap documentation: \r\n      *         https://uniswap.org/docs/v2/smart-contracts/router02/#swapethforexacttokens\r\n      * @return uint256 The dai needed to buy the tokens.\r\n      * @return uint256 The Ether received from the user for the trade.\r\n      * @notice Before this function is called the caller does not need to\r\n      *         approve the spending of anything. Please assure that the amount\r\n      *         of ETH sent with this transaction is sufficient by first calling\r\n      *         `buyPrice` with the same token amount. Add your % slippage to\r\n      *         the max dai spend amount (you can get the expected amount by \r\n      *         calling `buyPrice` on the curve contract).\r\n      */\r\n    function _commonMint(\r\n        uint256 _tokenAmount, \r\n        uint256 _maxDaiSpendAmount, \r\n        uint _deadline,\r\n        address _to\r\n    )\r\n        internal\r\n        returns(\r\n            uint256 daiNeeded,\r\n            uint256 ethReceived\r\n        )\r\n    {\r\n        // Getting the exact needed amount of DAI for desired token amount\r\n        daiNeeded = curve_.buyPrice(_tokenAmount);\r\n        // Checking that this amount is not more than the max spend amount\r\n        require(\r\n            _maxDaiSpendAmount >= daiNeeded,\r\n            \"DAI required for trade above max\"\r\n        );\r\n        // Swapping sent ETH for exact amount of DAI needed\r\n        router_.swapETHForExactTokens.value(msg.value)(\r\n            daiNeeded, \r\n            getPath(true), \r\n            address(this), \r\n            _deadline\r\n        );\r\n        // Getting the amount of ETH received\r\n        ethReceived = address(this).balance;\r\n        // Approving the curve as a spender\r\n        require(\r\n            dai_.approve(address(curve_), daiNeeded),\r\n            \"DAI approve failed\"\r\n        );\r\n        // Buying tokens (BZZ) against the curve\r\n        require(\r\n            curve_.mintTo(_tokenAmount, daiNeeded, _to),\r\n            \"BZZ mintTo failed\"\r\n        );\r\n        // Refunding user excess ETH\r\n        msg.sender.transfer(ethReceived);\r\n    }\r\n}",
  "sourcePath": "C:\\Projects\\Swarm\\swarm-curve\\Blockchain\\contracts\\Eth_broker.sol",
  "compiler": {
    "name": "solc",
    "version": "0.5.0+commit.1d4f565a.Emscripten.clang",
    "optimizer": true,
    "runs": 500
  },
  "schemaVersion": "2.3.3",
  "updatedAt": "2021-03-10T09:07:12.133Z"
}