{
  "contractName": "Token",
  "abi": [
    {
      "constant": true,
      "inputs": [],
      "name": "name",
      "outputs": [
        {
          "name": "",
          "type": "string"
        }
      ],
      "payable": false,
      "stateMutability": "view",
      "type": "function"
    },
    {
      "constant": false,
      "inputs": [
        {
          "name": "spender",
          "type": "address"
        },
        {
          "name": "amount",
          "type": "uint256"
        }
      ],
      "name": "approve",
      "outputs": [
        {
          "name": "",
          "type": "bool"
        }
      ],
      "payable": false,
      "stateMutability": "nonpayable",
      "type": "function"
    },
    {
      "constant": true,
      "inputs": [],
      "name": "totalSupply",
      "outputs": [
        {
          "name": "",
          "type": "uint256"
        }
      ],
      "payable": false,
      "stateMutability": "view",
      "type": "function"
    },
    {
      "constant": false,
      "inputs": [
        {
          "name": "sender",
          "type": "address"
        },
        {
          "name": "recipient",
          "type": "address"
        },
        {
          "name": "amount",
          "type": "uint256"
        }
      ],
      "name": "transferFrom",
      "outputs": [
        {
          "name": "",
          "type": "bool"
        }
      ],
      "payable": false,
      "stateMutability": "nonpayable",
      "type": "function"
    },
    {
      "constant": true,
      "inputs": [],
      "name": "decimals",
      "outputs": [
        {
          "name": "",
          "type": "uint8"
        }
      ],
      "payable": false,
      "stateMutability": "view",
      "type": "function"
    },
    {
      "constant": true,
      "inputs": [],
      "name": "cap",
      "outputs": [
        {
          "name": "",
          "type": "uint256"
        }
      ],
      "payable": false,
      "stateMutability": "view",
      "type": "function"
    },
    {
      "constant": false,
      "inputs": [
        {
          "name": "spender",
          "type": "address"
        },
        {
          "name": "addedValue",
          "type": "uint256"
        }
      ],
      "name": "increaseAllowance",
      "outputs": [
        {
          "name": "",
          "type": "bool"
        }
      ],
      "payable": false,
      "stateMutability": "nonpayable",
      "type": "function"
    },
    {
      "constant": false,
      "inputs": [
        {
          "name": "account",
          "type": "address"
        },
        {
          "name": "amount",
          "type": "uint256"
        }
      ],
      "name": "mint",
      "outputs": [
        {
          "name": "",
          "type": "bool"
        }
      ],
      "payable": false,
      "stateMutability": "nonpayable",
      "type": "function"
    },
    {
      "constant": false,
      "inputs": [
        {
          "name": "amount",
          "type": "uint256"
        }
      ],
      "name": "burn",
      "outputs": [],
      "payable": false,
      "stateMutability": "nonpayable",
      "type": "function"
    },
    {
      "constant": true,
      "inputs": [
        {
          "name": "account",
          "type": "address"
        }
      ],
      "name": "balanceOf",
      "outputs": [
        {
          "name": "",
          "type": "uint256"
        }
      ],
      "payable": false,
      "stateMutability": "view",
      "type": "function"
    },
    {
      "constant": false,
      "inputs": [
        {
          "name": "account",
          "type": "address"
        },
        {
          "name": "amount",
          "type": "uint256"
        }
      ],
      "name": "burnFrom",
      "outputs": [],
      "payable": false,
      "stateMutability": "nonpayable",
      "type": "function"
    },
    {
      "constant": true,
      "inputs": [],
      "name": "symbol",
      "outputs": [
        {
          "name": "",
          "type": "string"
        }
      ],
      "payable": false,
      "stateMutability": "view",
      "type": "function"
    },
    {
      "constant": false,
      "inputs": [
        {
          "name": "account",
          "type": "address"
        }
      ],
      "name": "addMinter",
      "outputs": [],
      "payable": false,
      "stateMutability": "nonpayable",
      "type": "function"
    },
    {
      "constant": false,
      "inputs": [],
      "name": "renounceMinter",
      "outputs": [],
      "payable": false,
      "stateMutability": "nonpayable",
      "type": "function"
    },
    {
      "constant": false,
      "inputs": [
        {
          "name": "spender",
          "type": "address"
        },
        {
          "name": "subtractedValue",
          "type": "uint256"
        }
      ],
      "name": "decreaseAllowance",
      "outputs": [
        {
          "name": "",
          "type": "bool"
        }
      ],
      "payable": false,
      "stateMutability": "nonpayable",
      "type": "function"
    },
    {
      "constant": false,
      "inputs": [
        {
          "name": "recipient",
          "type": "address"
        },
        {
          "name": "amount",
          "type": "uint256"
        }
      ],
      "name": "transfer",
      "outputs": [
        {
          "name": "",
          "type": "bool"
        }
      ],
      "payable": false,
      "stateMutability": "nonpayable",
      "type": "function"
    },
    {
      "constant": true,
      "inputs": [
        {
          "name": "account",
          "type": "address"
        }
      ],
      "name": "isMinter",
      "outputs": [
        {
          "name": "",
          "type": "bool"
        }
      ],
      "payable": false,
      "stateMutability": "view",
      "type": "function"
    },
    {
      "constant": true,
      "inputs": [
        {
          "name": "owner",
          "type": "address"
        },
        {
          "name": "spender",
          "type": "address"
        }
      ],
      "name": "allowance",
      "outputs": [
        {
          "name": "",
          "type": "uint256"
        }
      ],
      "payable": false,
      "stateMutability": "view",
      "type": "function"
    },
    {
      "inputs": [
        {
          "name": "_name",
          "type": "string"
        },
        {
          "name": "_symbol",
          "type": "string"
        },
        {
          "name": "_decimals",
          "type": "uint8"
        },
        {
          "name": "_cap",
          "type": "uint256"
        }
      ],
      "payable": false,
      "stateMutability": "nonpayable",
      "type": "constructor"
    },
    {
      "anonymous": false,
      "inputs": [
        {
          "indexed": true,
          "name": "account",
          "type": "address"
        }
      ],
      "name": "MinterAdded",
      "type": "event"
    },
    {
      "anonymous": false,
      "inputs": [
        {
          "indexed": true,
          "name": "account",
          "type": "address"
        }
      ],
      "name": "MinterRemoved",
      "type": "event"
    },
    {
      "anonymous": false,
      "inputs": [
        {
          "indexed": true,
          "name": "from",
          "type": "address"
        },
        {
          "indexed": true,
          "name": "to",
          "type": "address"
        },
        {
          "indexed": false,
          "name": "value",
          "type": "uint256"
        }
      ],
      "name": "Transfer",
      "type": "event"
    },
    {
      "anonymous": false,
      "inputs": [
        {
          "indexed": true,
          "name": "owner",
          "type": "address"
        },
        {
          "indexed": true,
          "name": "spender",
          "type": "address"
        },
        {
          "indexed": false,
          "name": "value",
          "type": "uint256"
        }
      ],
      "name": "Approval",
      "type": "event"
    }
  ],
  "bytecode": "0x60806040523480156200001157600080fd5b50604051620019ec380380620019ec833981018060405260808110156200003757600080fd5b8101908080516401000000008111156200005057600080fd5b820160208101848111156200006457600080fd5b81516401000000008111828201871017156200007f57600080fd5b505092919060200180516401000000008111156200009c57600080fd5b82016020810184811115620000b057600080fd5b8151640100000000811182820187101715620000cb57600080fd5b505060208083015160409093015186519295509293508291869186918691620000fa916000918601906200038a565b508151620001109060019060208501906200038a565b506002805460ff191660ff92909216919091179055506200014e90506200013f640100000000620001cc810204565b640100000000620001d1810204565b60008111620001be57604080517f08c379a000000000000000000000000000000000000000000000000000000000815260206004820152601560248201527f45524332304361707065643a2063617020697320300000000000000000000000604482015290519081900360640190fd5b600755506200042c92505050565b335b90565b620001ec600682640100000000620014586200022382021704565b604051600160a060020a038216907f6ae172837ea30b801fbfcdd4108aa1d5bf8ff775444fd70256b44e6bf3dfc3f690600090a250565b620002388282640100000000620002ca810204565b15620002a557604080517f08c379a000000000000000000000000000000000000000000000000000000000815260206004820152601f60248201527f526f6c65733a206163636f756e7420616c72656164792068617320726f6c6500604482015290519081900360640190fd5b600160a060020a0316600090815260209190915260409020805460ff19166001179055565b6000600160a060020a03821615156200036a57604080517f08c379a000000000000000000000000000000000000000000000000000000000815260206004820152602260248201527f526f6c65733a206163636f756e7420697320746865207a65726f20616464726560448201527f7373000000000000000000000000000000000000000000000000000000000000606482015290519081900360840190fd5b50600160a060020a03166000908152602091909152604090205460ff1690565b828054600181600116156101000203166002900490600052602060002090601f016020900481019282601f10620003cd57805160ff1916838001178555620003fd565b82800160010185558215620003fd579182015b82811115620003fd578251825591602001919060010190620003e0565b506200040b9291506200040f565b5090565b620001ce91905b808211156200040b576000815560010162000416565b6115b0806200043c6000396000f3fe6080604052600436106100fb5763ffffffff7c010000000000000000000000000000000000000000000000000000000060003504166306fdde038114610100578063095ea7b31461018a57806318160ddd146101d757806323b872dd146101fe578063313ce56714610241578063355274ea1461026c578063395093511461028157806340c10f19146102ba57806342966c68146102f357806370a082311461031f57806379cc67901461035257806395d89b411461038b578063983b2d56146103a057806398650275146103d3578063a457c2d7146103e8578063a9059cbb14610421578063aa271e1a1461045a578063dd62ed3e1461048d575b600080fd5b34801561010c57600080fd5b506101156104c8565b6040805160208082528351818301528351919283929083019185019080838360005b8381101561014f578181015183820152602001610137565b50505050905090810190601f16801561017c5780820380516001836020036101000a031916815260200191505b509250505060405180910390f35b34801561019657600080fd5b506101c3600480360360408110156101ad57600080fd5b50600160a060020a03813516906020013561055e565b604080519115158252519081900360200190f35b3480156101e357600080fd5b506101ec61057b565b60408051918252519081900360200190f35b34801561020a57600080fd5b506101c36004803603606081101561022157600080fd5b50600160a060020a03813581169160208101359091169060400135610581565b34801561024d57600080fd5b50610256610660565b6040805160ff9092168252519081900360200190f35b34801561027857600080fd5b506101ec610669565b34801561028d57600080fd5b506101c3600480360360408110156102a457600080fd5b50600160a060020a03813516906020013561066f565b3480156102c657600080fd5b506101c3600480360360408110156102dd57600080fd5b50600160a060020a0381351690602001356106c3565b3480156102ff57600080fd5b5061031d6004803603602081101561031657600080fd5b503561075b565b005b34801561032b57600080fd5b506101ec6004803603602081101561034257600080fd5b5035600160a060020a03166107f6565b34801561035e57600080fd5b5061031d6004803603604081101561037557600080fd5b50600160a060020a038135169060200135610811565b34801561039757600080fd5b506101156108a6565b3480156103ac57600080fd5b5061031d600480360360208110156103c357600080fd5b5035600160a060020a0316610906565b3480156103df57600080fd5b5061031d610996565b3480156103f457600080fd5b506101c36004803603604081101561040b57600080fd5b50600160a060020a0381351690602001356109a8565b34801561042d57600080fd5b506101c36004803603604081101561044457600080fd5b50600160a060020a038135169060200135610a5a565b34801561046657600080fd5b506101c36004803603602081101561047d57600080fd5b5035600160a060020a0316610a6e565b34801561049957600080fd5b506101ec600480360360408110156104b057600080fd5b50600160a060020a0381358116916020013516610a87565b60008054604080516020601f60026000196101006001881615020190951694909404938401819004810282018101909252828152606093909290918301828280156105545780601f1061052957610100808354040283529160200191610554565b820191906000526020600020905b81548152906001019060200180831161053757829003601f168201915b5050505050905090565b600061057261056b610ab2565b8484610ab6565b50600192915050565b60055490565b600061058e848484610c23565b6106568461059a610ab2565b61065185606060405190810160405280602881526020017f45524332303a207472616e7366657220616d6f756e742065786365656473206181526020017f6c6c6f77616e6365000000000000000000000000000000000000000000000000815250600460008b600160a060020a0316600160a060020a03168152602001908152602001600020600061062a610ab2565b600160a060020a03168152602081019190915260400160002054919063ffffffff610e4716565b610ab6565b5060019392505050565b60025460ff1690565b60075490565b600061057261067c610ab2565b84610651856004600061068d610ab2565b600160a060020a03908116825260208083019390935260409182016000908120918c16815292529020549063ffffffff610ee116565b60006106d56106d0610ab2565b610a6e565b1515610751576040805160e560020a62461bcd02815260206004820152603060248201527f4d696e746572526f6c653a2063616c6c657220646f6573206e6f74206861766560448201527f20746865204d696e74657220726f6c6500000000000000000000000000000000606482015290519081900360840190fd5b6105728383610f45565b6107666106d0610ab2565b15156107e2576040805160e560020a62461bcd02815260206004820152603060248201527f4d696e746572526f6c653a2063616c6c657220646f6573206e6f74206861766560448201527f20746865204d696e74657220726f6c6500000000000000000000000000000000606482015290519081900360840190fd5b6107f36107ed610ab2565b82610fc0565b50565b600160a060020a031660009081526003602052604090205490565b61081c6106d0610ab2565b1515610898576040805160e560020a62461bcd02815260206004820152603060248201527f4d696e746572526f6c653a2063616c6c657220646f6573206e6f74206861766560448201527f20746865204d696e74657220726f6c6500000000000000000000000000000000606482015290519081900360840190fd5b6108a28282611141565b5050565b60018054604080516020601f600260001961010087891615020190951694909404938401819004810282018101909252828152606093909290918301828280156105545780601f1061052957610100808354040283529160200191610554565b6109116106d0610ab2565b151561098d576040805160e560020a62461bcd02815260206004820152603060248201527f4d696e746572526f6c653a2063616c6c657220646f6573206e6f74206861766560448201527f20746865204d696e74657220726f6c6500000000000000000000000000000000606482015290519081900360840190fd5b6107f3816111e7565b6109a66109a1610ab2565b61122f565b565b60006105726109b5610ab2565b8461065185606060405190810160405280602581526020017f45524332303a2064656372656173656420616c6c6f77616e63652062656c6f7781526020017f207a65726f00000000000000000000000000000000000000000000000000000081525060046000610a23610ab2565b600160a060020a03908116825260208083019390935260409182016000908120918d1681529252902054919063ffffffff610e4716565b6000610572610a67610ab2565b8484610c23565b6000610a8160068363ffffffff61127716565b92915050565b600160a060020a03918216600090815260046020908152604080832093909416825291909152205490565b3390565b600160a060020a0383161515610b3b576040805160e560020a62461bcd028152602060048201526024808201527f45524332303a20617070726f76652066726f6d20746865207a65726f2061646460448201527f7265737300000000000000000000000000000000000000000000000000000000606482015290519081900360840190fd5b600160a060020a0382161515610bc1576040805160e560020a62461bcd02815260206004820152602260248201527f45524332303a20617070726f766520746f20746865207a65726f20616464726560448201527f7373000000000000000000000000000000000000000000000000000000000000606482015290519081900360840190fd5b600160a060020a03808416600081815260046020908152604080832094871680845294825291829020859055815185815291517f8c5be1e5ebec7d5bd14f71427d1e84f3dd0314c0f7b2291e5b200ac8c7c3b9259281900390910190a3505050565b600160a060020a0383161515610ca9576040805160e560020a62461bcd02815260206004820152602560248201527f45524332303a207472616e736665722066726f6d20746865207a65726f20616460448201527f6472657373000000000000000000000000000000000000000000000000000000606482015290519081900360840190fd5b600160a060020a0382161515610d2f576040805160e560020a62461bcd02815260206004820152602360248201527f45524332303a207472616e7366657220746f20746865207a65726f206164647260448201527f6573730000000000000000000000000000000000000000000000000000000000606482015290519081900360840190fd5b60408051606081018252602681527f45524332303a207472616e7366657220616d6f756e74206578636565647320626020808301919091527f616c616e6365000000000000000000000000000000000000000000000000000082840152600160a060020a038616600090815260039091529190912054610db691839063ffffffff610e4716565b600160a060020a038085166000908152600360205260408082209390935590841681522054610deb908263ffffffff610ee116565b600160a060020a0380841660008181526003602090815260409182902094909455805185815290519193928716927fddf252ad1be2c89b69c2b068fc378daa952ba7f163c4a11628f55a4df523b3ef92918290030190a3505050565b60008184841115610ed95760405160e560020a62461bcd0281526004018080602001828103825283818151815260200191508051906020019080838360005b83811015610e9e578181015183820152602001610e86565b50505050905090810190601f168015610ecb5780820380516001836020036101000a031916815260200191505b509250505060405180910390fd5b505050900390565b600082820183811015610f3e576040805160e560020a62461bcd02815260206004820152601b60248201527f536166654d6174683a206164646974696f6e206f766572666c6f770000000000604482015290519081900360640190fd5b9392505050565b600754610f6082610f5461057b565b9063ffffffff610ee116565b1115610fb6576040805160e560020a62461bcd02815260206004820152601960248201527f45524332304361707065643a2063617020657863656564656400000000000000604482015290519081900360640190fd5b6108a2828261131f565b600160a060020a0382161515611046576040805160e560020a62461bcd02815260206004820152602160248201527f45524332303a206275726e2066726f6d20746865207a65726f2061646472657360448201527f7300000000000000000000000000000000000000000000000000000000000000606482015290519081900360840190fd5b60408051606081018252602281527f45524332303a206275726e20616d6f756e7420657863656564732062616c616e6020808301919091527f636500000000000000000000000000000000000000000000000000000000000082840152600160a060020a0385166000908152600390915291909120546110cd91839063ffffffff610e4716565b600160a060020a0383166000908152600360205260409020556005546110f9908263ffffffff61141616565b600555604080518281529051600091600160a060020a038516917fddf252ad1be2c89b69c2b068fc378daa952ba7f163c4a11628f55a4df523b3ef9181900360200190a35050565b61114b8282610fc0565b6108a282611157610ab2565b61065184606060405190810160405280602481526020017f45524332303a206275726e20616d6f756e74206578636565647320616c6c6f7781526020017f616e6365000000000000000000000000000000000000000000000000000000008152506004600089600160a060020a0316600160a060020a03168152602001908152602001600020600061062a610ab2565b6111f860068263ffffffff61145816565b604051600160a060020a038216907f6ae172837ea30b801fbfcdd4108aa1d5bf8ff775444fd70256b44e6bf3dfc3f690600090a250565b61124060068263ffffffff6114dc16565b604051600160a060020a038216907fe94479a9f7e1952cc78f2d6baab678adc1b772d936c6583def489e524cb6669290600090a250565b6000600160a060020a03821615156112ff576040805160e560020a62461bcd02815260206004820152602260248201527f526f6c65733a206163636f756e7420697320746865207a65726f20616464726560448201527f7373000000000000000000000000000000000000000000000000000000000000606482015290519081900360840190fd5b50600160a060020a03166000908152602091909152604090205460ff1690565b600160a060020a038216151561137f576040805160e560020a62461bcd02815260206004820152601f60248201527f45524332303a206d696e7420746f20746865207a65726f206164647265737300604482015290519081900360640190fd5b600554611392908263ffffffff610ee116565b600555600160a060020a0382166000908152600360205260409020546113be908263ffffffff610ee116565b600160a060020a03831660008181526003602090815260408083209490945583518581529351929391927fddf252ad1be2c89b69c2b068fc378daa952ba7f163c4a11628f55a4df523b3ef9281900390910190a35050565b6000610f3e83836040805190810160405280601e81526020017f536166654d6174683a207375627472616374696f6e206f766572666c6f770000815250610e47565b6114628282611277565b156114b7576040805160e560020a62461bcd02815260206004820152601f60248201527f526f6c65733a206163636f756e7420616c72656164792068617320726f6c6500604482015290519081900360640190fd5b600160a060020a0316600090815260209190915260409020805460ff19166001179055565b6114e68282611277565b1515611562576040805160e560020a62461bcd02815260206004820152602160248201527f526f6c65733a206163636f756e7420646f6573206e6f74206861766520726f6c60448201527f6500000000000000000000000000000000000000000000000000000000000000606482015290519081900360840190fd5b600160a060020a0316600090815260209190915260409020805460ff1916905556fea165627a7a72305820b2f9f99cf65dfa7856784754e5d8cda4b0a59419d7e02d3bef7e24ac61d9d50c0029",
  "source": "pragma solidity 0.5.0;\r\n\r\n// FLAT - OpenZeppelin Smart Contracts\r\n/**\r\n * @notice  Below is all the required smart contracts from the OpenZeppelin\r\n *          library needed for the Token contract. This is the inheritance\r\n *          tree of the token:\r\n *          \r\n *          Token\r\n *          |--ERC20Detailed\r\n *          |  |--IERC20\r\n *          |--ERC20Capped\r\n *          |  |--ERC20Mintable\r\n *          |     |--MinterRoll\r\n *          |     |  |--Context\r\n *          |     |  |--Roles\r\n *          |     |--ERC20\r\n *          |        |--IERC20\r\n *          |        |--Context\r\n *          |        |--SafeMath\r\n *          |--ERC20Burnable\r\n *          |  |--Context\r\n *          |  |--ERC20\r\n *          |     |--IERC20\r\n *          |     |--Context\r\n *          |     |--SafeMath \r\n */\r\n\r\n/*\r\n * @dev Provides information about the current execution context, including the\r\n * sender of the transaction and its data. While these are generally available\r\n * via msg.sender and msg.data, they should not be accessed in such a direct\r\n * manner, since when dealing with GSN meta-transactions the account sending and\r\n * paying for execution may not be the actual sender (as far as an application\r\n * is concerned).\r\n *\r\n * This contract is only required for intermediate, library-like contracts.\r\n */\r\ncontract Context {\r\n    // Empty internal constructor, to prevent people from mistakenly deploying\r\n    // an instance of this contract, which should be used via inheritance.\r\n    constructor () internal { }\r\n    // solhint-disable-previous-line no-empty-blocks\r\n\r\n    function _msgSender() internal view returns (address payable) {\r\n        return msg.sender;\r\n    }\r\n\r\n    function _msgData() internal view returns (bytes memory) {\r\n        this; // silence state mutability warning without generating bytecode - see https://github.com/ethereum/solidity/issues/2691\r\n        return msg.data;\r\n    }\r\n}\r\n\r\n/**\r\n * @dev Interface of the ERC20 standard as defined in the EIP. Does not include\r\n * the optional functions; to access them see {ERC20Detailed}.\r\n */\r\ninterface IERC20 {\r\n    /**\r\n     * @dev Returns the amount of tokens in existence.\r\n     */\r\n    function totalSupply() external view returns (uint256);\r\n\r\n    /**\r\n     * @dev Returns the amount of tokens owned by `account`.\r\n     */\r\n    function balanceOf(address account) external view returns (uint256);\r\n\r\n    /**\r\n     * @dev Moves `amount` tokens from the caller's account to `recipient`.\r\n     *\r\n     * Returns a boolean value indicating whether the operation succeeded.\r\n     *\r\n     * Emits a {Transfer} event.\r\n     */\r\n    function transfer(address recipient, uint256 amount) external returns (bool);\r\n\r\n    /**\r\n     * @dev Returns the remaining number of tokens that `spender` will be\r\n     * allowed to spend on behalf of `owner` through {transferFrom}. This is\r\n     * zero by default.\r\n     *\r\n     * This value changes when {approve} or {transferFrom} are called.\r\n     */\r\n    function allowance(address owner, address spender) external view returns (uint256);\r\n\r\n    /**\r\n     * @dev Sets `amount` as the allowance of `spender` over the caller's tokens.\r\n     *\r\n     * Returns a boolean value indicating whether the operation succeeded.\r\n     *\r\n     * IMPORTANT: Beware that changing an allowance with this method brings the risk\r\n     * that someone may use both the old and the new allowance by unfortunate\r\n     * transaction ordering. One possible solution to mitigate this race\r\n     * condition is to first reduce the spender's allowance to 0 and set the\r\n     * desired value afterwards:\r\n     * https://github.com/ethereum/EIPs/issues/20#issuecomment-263524729\r\n     *\r\n     * Emits an {Approval} event.\r\n     */\r\n    function approve(address spender, uint256 amount) external returns (bool);\r\n\r\n    /**\r\n     * @dev Moves `amount` tokens from `sender` to `recipient` using the\r\n     * allowance mechanism. `amount` is then deducted from the caller's\r\n     * allowance.\r\n     *\r\n     * Returns a boolean value indicating whether the operation succeeded.\r\n     *\r\n     * Emits a {Transfer} event.\r\n     */\r\n    function transferFrom(address sender, address recipient, uint256 amount) external returns (bool);\r\n\r\n    /**\r\n     * @dev Emitted when `value` tokens are moved from one account (`from`) to\r\n     * another (`to`).\r\n     *\r\n     * Note that `value` may be zero.\r\n     */\r\n    event Transfer(address indexed from, address indexed to, uint256 value);\r\n\r\n    /**\r\n     * @dev Emitted when the allowance of a `spender` for an `owner` is set by\r\n     * a call to {approve}. `value` is the new allowance.\r\n     */\r\n    event Approval(address indexed owner, address indexed spender, uint256 value);\r\n}\r\n\r\n/**\r\n * @dev Wrappers over Solidity's arithmetic operations with added overflow\r\n * checks.\r\n *\r\n * Arithmetic operations in Solidity wrap on overflow. This can easily result\r\n * in bugs, because programmers usually assume that an overflow raises an\r\n * error, which is the standard behavior in high level programming languages.\r\n * `SafeMath` restores this intuition by reverting the transaction when an\r\n * operation overflows.\r\n *\r\n * Using this library instead of the unchecked operations eliminates an entire\r\n * class of bugs, so it's recommended to use it always.\r\n */\r\nlibrary SafeMath {\r\n    /**\r\n     * @dev Returns the addition of two unsigned integers, reverting on\r\n     * overflow.\r\n     *\r\n     * Counterpart to Solidity's `+` operator.\r\n     *\r\n     * Requirements:\r\n     * - Addition cannot overflow.\r\n     */\r\n    function add(uint256 a, uint256 b) internal pure returns (uint256) {\r\n        uint256 c = a + b;\r\n        require(c >= a, \"SafeMath: addition overflow\");\r\n\r\n        return c;\r\n    }\r\n\r\n    /**\r\n     * @dev Returns the subtraction of two unsigned integers, reverting on\r\n     * overflow (when the result is negative).\r\n     *\r\n     * Counterpart to Solidity's `-` operator.\r\n     *\r\n     * Requirements:\r\n     * - Subtraction cannot overflow.\r\n     */\r\n    function sub(uint256 a, uint256 b) internal pure returns (uint256) {\r\n        return sub(a, b, \"SafeMath: subtraction overflow\");\r\n    }\r\n\r\n    /**\r\n     * @dev Returns the subtraction of two unsigned integers, reverting with custom message on\r\n     * overflow (when the result is negative).\r\n     *\r\n     * Counterpart to Solidity's `-` operator.\r\n     *\r\n     * Requirements:\r\n     * - Subtraction cannot overflow.\r\n     *\r\n     * _Available since v2.4.0._\r\n     */\r\n    function sub(uint256 a, uint256 b, string memory errorMessage) internal pure returns (uint256) {\r\n        require(b <= a, errorMessage);\r\n        uint256 c = a - b;\r\n\r\n        return c;\r\n    }\r\n\r\n    /**\r\n     * @dev Returns the multiplication of two unsigned integers, reverting on\r\n     * overflow.\r\n     *\r\n     * Counterpart to Solidity's `*` operator.\r\n     *\r\n     * Requirements:\r\n     * - Multiplication cannot overflow.\r\n     */\r\n    function mul(uint256 a, uint256 b) internal pure returns (uint256) {\r\n        // Gas optimization: this is cheaper than requiring 'a' not being zero, but the\r\n        // benefit is lost if 'b' is also tested.\r\n        // See: https://github.com/OpenZeppelin/openzeppelin-contracts/pull/522\r\n        if (a == 0) {\r\n            return 0;\r\n        }\r\n\r\n        uint256 c = a * b;\r\n        require(c / a == b, \"SafeMath: multiplication overflow\");\r\n\r\n        return c;\r\n    }\r\n\r\n    /**\r\n     * @dev Returns the integer division of two unsigned integers. Reverts on\r\n     * division by zero. The result is rounded towards zero.\r\n     *\r\n     * Counterpart to Solidity's `/` operator. Note: this function uses a\r\n     * `revert` opcode (which leaves remaining gas untouched) while Solidity\r\n     * uses an invalid opcode to revert (consuming all remaining gas).\r\n     *\r\n     * Requirements:\r\n     * - The divisor cannot be zero.\r\n     */\r\n    function div(uint256 a, uint256 b) internal pure returns (uint256) {\r\n        return div(a, b, \"SafeMath: division by zero\");\r\n    }\r\n\r\n    /**\r\n     * @dev Returns the integer division of two unsigned integers. Reverts with custom message on\r\n     * division by zero. The result is rounded towards zero.\r\n     *\r\n     * Counterpart to Solidity's `/` operator. Note: this function uses a\r\n     * `revert` opcode (which leaves remaining gas untouched) while Solidity\r\n     * uses an invalid opcode to revert (consuming all remaining gas).\r\n     *\r\n     * Requirements:\r\n     * - The divisor cannot be zero.\r\n     *\r\n     * _Available since v2.4.0._\r\n     */\r\n    function div(uint256 a, uint256 b, string memory errorMessage) internal pure returns (uint256) {\r\n        // Solidity only automatically asserts when dividing by 0\r\n        require(b > 0, errorMessage);\r\n        uint256 c = a / b;\r\n        // assert(a == b * c + a % b); // There is no case in which this doesn't hold\r\n\r\n        return c;\r\n    }\r\n\r\n    /**\r\n     * @dev Returns the remainder of dividing two unsigned integers. (unsigned integer modulo),\r\n     * Reverts when dividing by zero.\r\n     *\r\n     * Counterpart to Solidity's `%` operator. This function uses a `revert`\r\n     * opcode (which leaves remaining gas untouched) while Solidity uses an\r\n     * invalid opcode to revert (consuming all remaining gas).\r\n     *\r\n     * Requirements:\r\n     * - The divisor cannot be zero.\r\n     */\r\n    function mod(uint256 a, uint256 b) internal pure returns (uint256) {\r\n        return mod(a, b, \"SafeMath: modulo by zero\");\r\n    }\r\n\r\n    /**\r\n     * @dev Returns the remainder of dividing two unsigned integers. (unsigned integer modulo),\r\n     * Reverts with custom message when dividing by zero.\r\n     *\r\n     * Counterpart to Solidity's `%` operator. This function uses a `revert`\r\n     * opcode (which leaves remaining gas untouched) while Solidity uses an\r\n     * invalid opcode to revert (consuming all remaining gas).\r\n     *\r\n     * Requirements:\r\n     * - The divisor cannot be zero.\r\n     *\r\n     * _Available since v2.4.0._\r\n     */\r\n    function mod(uint256 a, uint256 b, string memory errorMessage) internal pure returns (uint256) {\r\n        require(b != 0, errorMessage);\r\n        return a % b;\r\n    }\r\n}\r\n\r\n/**\r\n * @dev Implementation of the {IERC20} interface.\r\n *\r\n * This implementation is agnostic to the way tokens are created. This means\r\n * that a supply mechanism has to be added in a derived contract using {_mint}.\r\n * For a generic mechanism see {ERC20Mintable}.\r\n *\r\n * TIP: For a detailed writeup see our guide\r\n * https://forum.zeppelin.solutions/t/how-to-implement-erc20-supply-mechanisms/226[How\r\n * to implement supply mechanisms].\r\n *\r\n * We have followed general OpenZeppelin guidelines: functions revert instead\r\n * of returning `false` on failure. This behavior is nonetheless conventional\r\n * and does not conflict with the expectations of ERC20 applications.\r\n *\r\n * Additionally, an {Approval} event is emitted on calls to {transferFrom}.\r\n * This allows applications to reconstruct the allowance for all accounts just\r\n * by listening to said events. Other implementations of the EIP may not emit\r\n * these events, as it isn't required by the specification.\r\n *\r\n * Finally, the non-standard {decreaseAllowance} and {increaseAllowance}\r\n * functions have been added to mitigate the well-known issues around setting\r\n * allowances. See {IERC20-approve}.\r\n */\r\ncontract ERC20 is Context, IERC20 {\r\n    using SafeMath for uint256;\r\n\r\n    mapping (address => uint256) private _balances;\r\n\r\n    mapping (address => mapping (address => uint256)) private _allowances;\r\n\r\n    uint256 private _totalSupply;\r\n\r\n    /**\r\n     * @dev See {IERC20-totalSupply}.\r\n     */\r\n    function totalSupply() public view returns (uint256) {\r\n        return _totalSupply;\r\n    }\r\n\r\n    /**\r\n     * @dev See {IERC20-balanceOf}.\r\n     */\r\n    function balanceOf(address account) public view returns (uint256) {\r\n        return _balances[account];\r\n    }\r\n\r\n    /**\r\n     * @dev See {IERC20-transfer}.\r\n     *\r\n     * Requirements:\r\n     *\r\n     * - `recipient` cannot be the zero address.\r\n     * - the caller must have a balance of at least `amount`.\r\n     */\r\n    function transfer(address recipient, uint256 amount) public returns (bool) {\r\n        _transfer(_msgSender(), recipient, amount);\r\n        return true;\r\n    }\r\n\r\n    /**\r\n     * @dev See {IERC20-allowance}.\r\n     */\r\n    function allowance(address owner, address spender) public view returns (uint256) {\r\n        return _allowances[owner][spender];\r\n    }\r\n\r\n    /**\r\n     * @dev See {IERC20-approve}.\r\n     *\r\n     * Requirements:\r\n     *\r\n     * - `spender` cannot be the zero address.\r\n     */\r\n    function approve(address spender, uint256 amount) public returns (bool) {\r\n        _approve(_msgSender(), spender, amount);\r\n        return true;\r\n    }\r\n\r\n    /**\r\n     * @dev See {IERC20-transferFrom}.\r\n     *\r\n     * Emits an {Approval} event indicating the updated allowance. This is not\r\n     * required by the EIP. See the note at the beginning of {ERC20};\r\n     *\r\n     * Requirements:\r\n     * - `sender` and `recipient` cannot be the zero address.\r\n     * - `sender` must have a balance of at least `amount`.\r\n     * - the caller must have allowance for `sender`'s tokens of at least\r\n     * `amount`.\r\n     */\r\n    function transferFrom(address sender, address recipient, uint256 amount) public returns (bool) {\r\n        _transfer(sender, recipient, amount);\r\n        _approve(sender, _msgSender(), _allowances[sender][_msgSender()].sub(amount, \"ERC20: transfer amount exceeds allowance\"));\r\n        return true;\r\n    }\r\n\r\n    /**\r\n     * @dev Atomically increases the allowance granted to `spender` by the caller.\r\n     *\r\n     * This is an alternative to {approve} that can be used as a mitigation for\r\n     * problems described in {IERC20-approve}.\r\n     *\r\n     * Emits an {Approval} event indicating the updated allowance.\r\n     *\r\n     * Requirements:\r\n     *\r\n     * - `spender` cannot be the zero address.\r\n     */\r\n    function increaseAllowance(address spender, uint256 addedValue) public returns (bool) {\r\n        _approve(_msgSender(), spender, _allowances[_msgSender()][spender].add(addedValue));\r\n        return true;\r\n    }\r\n\r\n    /**\r\n     * @dev Atomically decreases the allowance granted to `spender` by the caller.\r\n     *\r\n     * This is an alternative to {approve} that can be used as a mitigation for\r\n     * problems described in {IERC20-approve}.\r\n     *\r\n     * Emits an {Approval} event indicating the updated allowance.\r\n     *\r\n     * Requirements:\r\n     *\r\n     * - `spender` cannot be the zero address.\r\n     * - `spender` must have allowance for the caller of at least\r\n     * `subtractedValue`.\r\n     */\r\n    function decreaseAllowance(address spender, uint256 subtractedValue) public returns (bool) {\r\n        _approve(_msgSender(), spender, _allowances[_msgSender()][spender].sub(subtractedValue, \"ERC20: decreased allowance below zero\"));\r\n        return true;\r\n    }\r\n\r\n    /**\r\n     * @dev Moves tokens `amount` from `sender` to `recipient`.\r\n     *\r\n     * This is internal function is equivalent to {transfer}, and can be used to\r\n     * e.g. implement automatic token fees, slashing mechanisms, etc.\r\n     *\r\n     * Emits a {Transfer} event.\r\n     *\r\n     * Requirements:\r\n     *\r\n     * - `sender` cannot be the zero address.\r\n     * - `recipient` cannot be the zero address.\r\n     * - `sender` must have a balance of at least `amount`.\r\n     */\r\n    function _transfer(address sender, address recipient, uint256 amount) internal {\r\n        require(sender != address(0), \"ERC20: transfer from the zero address\");\r\n        require(recipient != address(0), \"ERC20: transfer to the zero address\");\r\n\r\n        _balances[sender] = _balances[sender].sub(amount, \"ERC20: transfer amount exceeds balance\");\r\n        _balances[recipient] = _balances[recipient].add(amount);\r\n        emit Transfer(sender, recipient, amount);\r\n    }\r\n\r\n    /** @dev Creates `amount` tokens and assigns them to `account`, increasing\r\n     * the total supply.\r\n     *\r\n     * Emits a {Transfer} event with `from` set to the zero address.\r\n     *\r\n     * Requirements\r\n     *\r\n     * - `to` cannot be the zero address.\r\n     */\r\n    function _mint(address account, uint256 amount) internal {\r\n        require(account != address(0), \"ERC20: mint to the zero address\");\r\n\r\n        _totalSupply = _totalSupply.add(amount);\r\n        _balances[account] = _balances[account].add(amount);\r\n        emit Transfer(address(0), account, amount);\r\n    }\r\n\r\n    /**\r\n     * @dev Destroys `amount` tokens from `account`, reducing the\r\n     * total supply.\r\n     *\r\n     * Emits a {Transfer} event with `to` set to the zero address.\r\n     *\r\n     * Requirements\r\n     *\r\n     * - `account` cannot be the zero address.\r\n     * - `account` must have at least `amount` tokens.\r\n     */\r\n    function _burn(address account, uint256 amount) internal {\r\n        require(account != address(0), \"ERC20: burn from the zero address\");\r\n\r\n        _balances[account] = _balances[account].sub(amount, \"ERC20: burn amount exceeds balance\");\r\n        _totalSupply = _totalSupply.sub(amount);\r\n        emit Transfer(account, address(0), amount);\r\n    }\r\n\r\n    /**\r\n     * @dev Sets `amount` as the allowance of `spender` over the `owner`s tokens.\r\n     *\r\n     * This is internal function is equivalent to `approve`, and can be used to\r\n     * e.g. set automatic allowances for certain subsystems, etc.\r\n     *\r\n     * Emits an {Approval} event.\r\n     *\r\n     * Requirements:\r\n     *\r\n     * - `owner` cannot be the zero address.\r\n     * - `spender` cannot be the zero address.\r\n     */\r\n    function _approve(address owner, address spender, uint256 amount) internal {\r\n        require(owner != address(0), \"ERC20: approve from the zero address\");\r\n        require(spender != address(0), \"ERC20: approve to the zero address\");\r\n\r\n        _allowances[owner][spender] = amount;\r\n        emit Approval(owner, spender, amount);\r\n    }\r\n\r\n    /**\r\n     * @dev Destroys `amount` tokens from `account`.`amount` is then deducted\r\n     * from the caller's allowance.\r\n     *\r\n     * See {_burn} and {_approve}.\r\n     */\r\n    function _burnFrom(address account, uint256 amount) internal {\r\n        _burn(account, amount);\r\n        _approve(account, _msgSender(), _allowances[account][_msgSender()].sub(amount, \"ERC20: burn amount exceeds allowance\"));\r\n    }\r\n}\r\n\r\n/**\r\n * @title Roles\r\n * @dev Library for managing addresses assigned to a Role.\r\n */\r\nlibrary Roles {\r\n    struct Role {\r\n        mapping (address => bool) bearer;\r\n    }\r\n\r\n    /**\r\n     * @dev Give an account access to this role.\r\n     */\r\n    function add(Role storage role, address account) internal {\r\n        require(!has(role, account), \"Roles: account already has role\");\r\n        role.bearer[account] = true;\r\n    }\r\n\r\n    /**\r\n     * @dev Remove an account's access to this role.\r\n     */\r\n    function remove(Role storage role, address account) internal {\r\n        require(has(role, account), \"Roles: account does not have role\");\r\n        role.bearer[account] = false;\r\n    }\r\n\r\n    /**\r\n     * @dev Check if an account has this role.\r\n     * @return bool\r\n     */\r\n    function has(Role storage role, address account) internal view returns (bool) {\r\n        require(account != address(0), \"Roles: account is the zero address\");\r\n        return role.bearer[account];\r\n    }\r\n}\r\n\r\n\r\ncontract MinterRole is Context {\r\n    using Roles for Roles.Role;\r\n\r\n    event MinterAdded(address indexed account);\r\n    event MinterRemoved(address indexed account);\r\n\r\n    Roles.Role private _minters;\r\n\r\n    constructor () internal {\r\n        _addMinter(_msgSender());\r\n    }\r\n\r\n    modifier onlyMinter() {\r\n        require(isMinter(_msgSender()), \"MinterRole: caller does not have the Minter role\");\r\n        _;\r\n    }\r\n\r\n    function isMinter(address account) public view returns (bool) {\r\n        return _minters.has(account);\r\n    }\r\n\r\n    function addMinter(address account) public onlyMinter {\r\n        _addMinter(account);\r\n    }\r\n\r\n    function renounceMinter() public {\r\n        _removeMinter(_msgSender());\r\n    }\r\n\r\n    function _addMinter(address account) internal {\r\n        _minters.add(account);\r\n        emit MinterAdded(account);\r\n    }\r\n\r\n    function _removeMinter(address account) internal {\r\n        _minters.remove(account);\r\n        emit MinterRemoved(account);\r\n    }\r\n}\r\n\r\n/**\r\n * @dev Extension of {ERC20} that adds a set of accounts with the {MinterRole},\r\n * which have permission to mint (create) new tokens as they see fit.\r\n *\r\n * At construction, the deployer of the contract is the only minter.\r\n */\r\ncontract ERC20Mintable is ERC20, MinterRole {\r\n    /**\r\n     * @dev See {ERC20-_mint}.\r\n     *\r\n     * Requirements:\r\n     *\r\n     * - the caller must have the {MinterRole}.\r\n     */\r\n    function mint(address account, uint256 amount) public onlyMinter returns (bool) {\r\n        _mint(account, amount);\r\n        return true;\r\n    }\r\n}\r\n\r\n\r\n/**\r\n * @dev Extension of {ERC20} that allows token holders to destroy both their own\r\n * tokens and those that they have an allowance for, in a way that can be\r\n * recognized off-chain (via event analysis).\r\n */\r\ncontract ERC20Burnable is Context, ERC20, MinterRole {\r\n    /**\r\n     * @dev Destroys `amount` tokens from the caller.\r\n     *\r\n     * See {ERC20-_burn}.\r\n     */\r\n    function burn(uint256 amount) public onlyMinter {\r\n        _burn(_msgSender(), amount);\r\n    }\r\n\r\n    /**\r\n     * @dev See {ERC20-_burnFrom}.\r\n     */\r\n    function burnFrom(address account, uint256 amount) public onlyMinter {\r\n        _burnFrom(account, amount);\r\n    }\r\n}\r\n\r\n/**\r\n * @dev Extension of {ERC20Mintable} that adds a cap to the supply of tokens.\r\n */\r\ncontract ERC20Capped is ERC20Mintable {\r\n    uint256 private _cap;\r\n\r\n    /**\r\n     * @dev Sets the value of the `cap`. This value is immutable, it can only be\r\n     * set once during construction.\r\n     */\r\n    constructor (uint256 cap) public {\r\n        require(cap > 0, \"ERC20Capped: cap is 0\");\r\n        _cap = cap;\r\n    }\r\n\r\n    /**\r\n     * @dev Returns the cap on the token's total supply.\r\n     */\r\n    function cap() public view returns (uint256) {\r\n        return _cap;\r\n    }\r\n\r\n    /**\r\n     * @dev See {ERC20Mintable-mint}.\r\n     *\r\n     * Requirements:\r\n     *\r\n     * - `value` must not cause the total supply to go over the cap.\r\n     */\r\n    function _mint(address account, uint256 value) internal {\r\n        require(totalSupply().add(value) <= _cap, \"ERC20Capped: cap exceeded\");\r\n        super._mint(account, value);\r\n    }\r\n}\r\n\r\n/**\r\n * @dev Optional functions from the ERC20 standard.\r\n */\r\ncontract ERC20Detailed is IERC20 {\r\n    string private _name;\r\n    string private _symbol;\r\n    uint8 private _decimals;\r\n\r\n    /**\r\n     * @dev Sets the values for `name`, `symbol`, and `decimals`. All three of\r\n     * these values are immutable: they can only be set once during\r\n     * construction.\r\n     */\r\n    constructor (string memory name, string memory symbol, uint8 decimals) public {\r\n        _name = name;\r\n        _symbol = symbol;\r\n        _decimals = decimals;\r\n    }\r\n\r\n    /**\r\n     * @dev Returns the name of the token.\r\n     */\r\n    function name() public view returns (string memory) {\r\n        return _name;\r\n    }\r\n\r\n    /**\r\n     * @dev Returns the symbol of the token, usually a shorter version of the\r\n     * name.\r\n     */\r\n    function symbol() public view returns (string memory) {\r\n        return _symbol;\r\n    }\r\n\r\n    /**\r\n     * @dev Returns the number of decimals used to get its user representation.\r\n     * For example, if `decimals` equals `2`, a balance of `505` tokens should\r\n     * be displayed to a user as `5,05` (`505 / 10 ** 2`).\r\n     *\r\n     * Tokens usually opt for a value of 18, imitating the relationship between\r\n     * Ether and Wei.\r\n     *\r\n     * NOTE: This information is only used for _display_ purposes: it in\r\n     * no way affects any of the arithmetic of the contract, including\r\n     * {IERC20-balanceOf} and {IERC20-transfer}.\r\n     */\r\n    function decimals() public view returns (uint8) {\r\n        return _decimals;\r\n    }\r\n}\r\n\r\n/**\r\n * @notice  This contract is for the Swarm BZZ token. This contract inherits\r\n *          from all the above imported contracts indirectly through the\r\n *          implemented contracts. ERC20Capped is Mintable, Burnable is an ERC20\r\n */\r\ncontract Token is ERC20Detailed, ERC20Capped, ERC20Burnable {\r\n    /**\r\n      * @dev    Initialises all the inherited smart contracts\r\n      */\r\n    constructor(\r\n        string memory _name,\r\n        string memory _symbol,\r\n        uint8 _decimals,\r\n        uint256 _cap\r\n    ) \r\n        ERC20()\r\n        ERC20Detailed(\r\n            _name,\r\n            _symbol,\r\n            _decimals\r\n        )\r\n        ERC20Capped(\r\n            _cap\r\n        )\r\n        ERC20Mintable()\r\n        ERC20Burnable()\r\n        public\r\n    {\r\n\r\n    }\r\n}",
  "sourcePath": "C:\\Projects\\Swarm\\swarm-curve\\Blockchain\\contracts\\Token.sol",
  "compiler": {
    "name": "solc",
    "version": "0.5.0+commit.1d4f565a.Emscripten.clang",
    "optimizer": true,
    "runs": 500
  },
  "schemaVersion": "2.3.3",
  "updatedAt": "2021-03-10T09:07:12.243Z"
}